20260428-06:00:58.831: >>OUT>> 8=FIX.4.4|9=72|35=A|34=1|49=TRADER|52=20260428-06:00:58.828|56=VENUE|98=0|108=30|141=Y|10=126|
20260428-06:00:58.891: <<IN<< 8=FIX.4.4|9=72|35=A|34=1|49=VENUE|52=20260428-06:00:58.887|56=TRADER|98=0|108=30|141=Y|10=131|
20260428-06:01:04.108: >>OUT>> 8=FIX.4.4|9=72|35=A|34=1|49=TRADER|52=20260428-06:01:04.106|56=VENUE|98=0|108=30|141=Y|10=107|
20260428-06:01:04.115: <<IN<< 8=FIX.4.4|9=72|35=A|34=1|49=VENUE|52=20260428-06:01:04.113|56=TRADER|98=0|108=30|141=Y|10=105|
20260428-06:01:09.411: >>OUT>> 8=FIX.4.4|9=72|35=A|34=1|49=TRADER|52=20260428-06:01:09.408|56=VENUE|98=0|108=30|141=Y|10=117|
20260428-06:01:09.418: <<IN<< 8=FIX.4.4|9=72|35=A|34=1|49=VENUE|52=20260428-06:01:09.416|56=TRADER|98=0|108=30|141=Y|10=116|
20260428-06:01:14.686: >>OUT>> 8=FIX.4.4|9=72|35=A|34=1|49=TRADER|52=20260428-06:01:14.684|56=VENUE|98=0|108=30|141=Y|10=119|
20260428-06:01:14.693: <<IN<< 8=FIX.4.4|9=72|35=A|34=1|49=VENUE|52=20260428-06:01:14.691|56=TRADER|98=0|108=30|141=Y|10=117|
20260428-06:01:19.979: >>OUT>> 8=FIX.4.4|9=72|35=A|34=1|49=TRADER|52=20260428-06:01:19.976|56=VENUE|98=0|108=30|141=Y|10=128|
20260428-06:01:19.987: <<IN<< 8=FIX.4.4|9=72|35=A|34=1|49=VENUE|52=20260428-06:01:19.984|56=TRADER|98=0|108=30|141=Y|10=127|
20260428-06:01:20.023: >>OUT>> 8=FIX.4.4|9=175|35=D|34=2|49=TRADER|52=20260428-06:01:20.023|56=VENUE|11=CL-EURUSD-4a0eb9c8-2d31-4187-8967-4be6b00e7dec|21=1|38=100000|40=2|44=1.0745|54=1|55=EUR/USD|60=20260428-06:01:20.022|10=201|
20260428-06:01:20.082: <<IN<< 8=FIX.4.4|9=338|35=8|34=2|49=VENUE|52=20260428-06:01:20.081|56=TRADER|6=1.0745|11=CL-EURUSD-4a0eb9c8-2d31-4187-8967-4be6b00e7dec|14=100000|17=EX-7d9356b3-c246-4928-9ff7-1bb3f7c729f0|31=1.0745|32=100000|37=ORD-7c2dca0d-f132-4066-8330-e51d4b924b42|39=2|41=CL-EURUSD-4a0eb9c8-2d31-4187-8967-4be6b00e7dec|54=1|55=EUR/USD|60=20260428-06:01:20.081|150=2|151=0|10=157|
20260428-06:01:22.936: >>OUT>> 8=FIX.4.4|9=54|35=5|34=3|49=TRADER|52=20260428-06:01:22.936|56=VENUE|10=038|
20260428-06:01:22.939: <<IN<< 8=FIX.4.4|9=54|35=5|34=3|49=VENUE|52=20260428-06:01:22.938|56=TRADER|10=040|
