20260505-07:38:50.160: <<IN<< 8=FIX.4.4|9=66|35=A|34=1|49=TRADER|52=20260505-07:38:50.118|56=VENUE|98=0|108=30|10=076|
20260505-07:38:50.172: >>OUT>> 8=FIX.4.4|9=66|35=A|34=1|49=VENUE|52=20260505-07:38:50.171|56=TRADER|98=0|108=30|10=075|
20260505-07:38:50.221: <<IN<< 8=FIX.4.4|9=175|35=D|34=2|49=TRADER|52=20260505-07:38:50.220|56=VENUE|11=CL-EURUSD-34607493-e7fd-461f-a45f-0edaffd8bde3|21=1|38=100000|40=2|44=1.0745|54=1|55=EUR/USD|60=20260505-07:38:50.219|10=120|
20260505-07:38:50.279: >>OUT>> 8=FIX.4.4|9=338|35=8|34=2|49=VENUE|52=20260505-07:38:50.279|56=TRADER|6=1.0745|11=CL-EURUSD-34607493-e7fd-461f-a45f-0edaffd8bde3|14=100000|17=EX-a95dd176-c7b1-4718-8098-914c1985d917|31=1.0745|32=100000|37=ORD-7e4949bb-9395-4c5d-8103-1419142d37f4|39=2|41=CL-EURUSD-34607493-e7fd-461f-a45f-0edaffd8bde3|54=1|55=EUR/USD|60=20260505-07:38:50.279|150=2|151=0|10=238|
20260505-07:38:51.222: <<IN<< 8=FIX.4.4|9=175|35=D|34=3|49=TRADER|52=20260505-07:38:51.221|56=VENUE|11=CL-EURUSD-589a1a5f-73b3-47fa-abdc-5a1c9f03e4bb|21=1|38=100000|40=2|44=1.0745|54=1|55=EUR/USD|60=20260505-07:38:51.221|10=146|
20260505-07:38:51.223: >>OUT>> 8=FIX.4.4|9=338|35=8|34=3|49=VENUE|52=20260505-07:38:51.223|56=TRADER|6=1.0745|11=CL-EURUSD-589a1a5f-73b3-47fa-abdc-5a1c9f03e4bb|14=100000|17=EX-e90c80f3-1d15-4962-83a0-997548f60b9c|31=1.0745|32=100000|37=ORD-06163564-4b37-44e3-8710-4e5f6d2d3762|39=2|41=CL-EURUSD-589a1a5f-73b3-47fa-abdc-5a1c9f03e4bb|54=1|55=EUR/USD|60=20260505-07:38:51.223|150=2|151=0|10=002|
20260505-07:38:52.223: <<IN<< 8=FIX.4.4|9=175|35=D|34=4|49=TRADER|52=20260505-07:38:52.222|56=VENUE|11=CL-EURUSD-c6b87bbc-af89-4d4d-a699-c8bd9c86c668|21=1|38=100000|40=2|44=1.0745|54=1|55=EUR/USD|60=20260505-07:38:52.222|10=147|
20260505-07:38:52.224: >>OUT>> 8=FIX.4.4|9=338|35=8|34=4|49=VENUE|52=20260505-07:38:52.224|56=TRADER|6=1.0745|11=CL-EURUSD-c6b87bbc-af89-4d4d-a699-c8bd9c86c668|14=100000|17=EX-73b8b21f-73c3-44dc-b24d-1b01f311102e|31=1.0745|32=100000|37=ORD-a06d345c-bfbb-418d-a783-78eb77ea642e|39=2|41=CL-EURUSD-c6b87bbc-af89-4d4d-a699-c8bd9c86c668|54=1|55=EUR/USD|60=20260505-07:38:52.224|150=2|151=0|10=222|
20260505-07:38:53.224: <<IN<< 8=FIX.4.4|9=175|35=D|34=5|49=TRADER|52=20260505-07:38:53.223|56=VENUE|11=CL-EURUSD-905ed4c1-16aa-4189-8d3c-d5e09682bf9d|21=1|38=100000|40=2|44=1.0745|54=1|55=EUR/USD|60=20260505-07:38:53.223|10=240|
20260505-07:38:53.225: >>OUT>> 8=FIX.4.4|9=338|35=8|34=5|49=VENUE|52=20260505-07:38:53.225|56=TRADER|6=1.0745|11=CL-EURUSD-905ed4c1-16aa-4189-8d3c-d5e09682bf9d|14=100000|17=EX-3fe57979-8e4a-4a59-9c2f-f85e368a104b|31=1.0745|32=100000|37=ORD-06f87406-c9c6-4dda-9eae-1132a1a72fcf|39=2|41=CL-EURUSD-905ed4c1-16aa-4189-8d3c-d5e09682bf9d|54=1|55=EUR/USD|60=20260505-07:38:53.225|150=2|151=0|10=199|
20260505-07:38:54.225: <<IN<< 8=FIX.4.4|9=175|35=D|34=6|49=TRADER|52=20260505-07:38:54.224|56=VENUE|11=CL-EURUSD-1e701646-b2b7-48ed-840a-2660d5b76e89|21=1|38=100000|40=2|44=1.0745|54=1|55=EUR/USD|60=20260505-07:38:54.224|10=098|
20260505-07:38:54.226: >>OUT>> 8=FIX.4.4|9=338|35=8|34=6|49=VENUE|52=20260505-07:38:54.226|56=TRADER|6=1.0745|11=CL-EURUSD-1e701646-b2b7-48ed-840a-2660d5b76e89|14=100000|17=EX-a1e87234-e322-46fe-ab6f-f3aa33ae0325|31=1.0745|32=100000|37=ORD-0fe4e474-76ff-4e00-8372-045fb32b5e8c|39=2|41=CL-EURUSD-1e701646-b2b7-48ed-840a-2660d5b76e89|54=1|55=EUR/USD|60=20260505-07:38:54.226|150=2|151=0|10=082|
20260505-07:38:55.226: <<IN<< 8=FIX.4.4|9=175|35=D|34=7|49=TRADER|52=20260505-07:38:55.225|56=VENUE|11=CL-EURUSD-39f3bd1d-62c7-4b64-99b9-4dcb2647a15a|21=1|38=100000|40=2|44=1.0745|54=1|55=EUR/USD|60=20260505-07:38:55.225|10=245|
20260505-07:38:55.227: >>OUT>> 8=FIX.4.4|9=338|35=8|34=7|49=VENUE|52=20260505-07:38:55.227|56=TRADER|6=1.0745|11=CL-EURUSD-39f3bd1d-62c7-4b64-99b9-4dcb2647a15a|14=100000|17=EX-e9b9cbec-34bd-4d05-b9bd-3c4789e592df|31=1.0745|32=100000|37=ORD-5f375bb2-d351-4c56-ba58-4008d0e7237d|39=2|41=CL-EURUSD-39f3bd1d-62c7-4b64-99b9-4dcb2647a15a|54=1|55=EUR/USD|60=20260505-07:38:55.227|150=2|151=0|10=234|
20260505-07:38:56.227: <<IN<< 8=FIX.4.4|9=175|35=D|34=8|49=TRADER|52=20260505-07:38:56.226|56=VENUE|11=CL-EURUSD-c54bcb64-f69b-4392-8328-7624ce32dc7b|21=1|38=100000|40=2|44=1.0745|54=1|55=EUR/USD|60=20260505-07:38:56.226|10=206|
20260505-07:38:56.228: >>OUT>> 8=FIX.4.4|9=338|35=8|34=8|49=VENUE|52=20260505-07:38:56.228|56=TRADER|6=1.0745|11=CL-EURUSD-c54bcb64-f69b-4392-8328-7624ce32dc7b|14=100000|17=EX-5d8563b0-a7d3-41d6-a113-c5af2101b6eb|31=1.0745|32=100000|37=ORD-7ec48fd4-0c54-492e-8dc9-b5daa31e4ba6|39=2|41=CL-EURUSD-c54bcb64-f69b-4392-8328-7624ce32dc7b|54=1|55=EUR/USD|60=20260505-07:38:56.228|150=2|151=0|10=165|
20260505-07:38:57.228: <<IN<< 8=FIX.4.4|9=175|35=D|34=9|49=TRADER|52=20260505-07:38:57.227|56=VENUE|11=CL-EURUSD-6cb9f34a-0144-4891-b630-8daebfd290cb|21=1|38=100000|40=2|44=1.0745|54=1|55=EUR/USD|60=20260505-07:38:57.227|10=034|
20260505-07:38:57.229: >>OUT>> 8=FIX.4.4|9=338|35=8|34=9|49=VENUE|52=20260505-07:38:57.229|56=TRADER|6=1.0745|11=CL-EURUSD-6cb9f34a-0144-4891-b630-8daebfd290cb|14=100000|17=EX-6ef386cb-4856-4cf8-92f7-3ed08866e52c|31=1.0745|32=100000|37=ORD-f8170087-1bc8-4a8d-bc1d-ded97305e621|39=2|41=CL-EURUSD-6cb9f34a-0144-4891-b630-8daebfd290cb|54=1|55=EUR/USD|60=20260505-07:38:57.229|150=2|151=0|10=192|
20260505-07:38:58.229: <<IN<< 8=FIX.4.4|9=176|35=D|34=10|49=TRADER|52=20260505-07:38:58.228|56=VENUE|11=CL-EURUSD-eda4368a-5766-4f65-92ad-8c983abb20ab|21=1|38=100000|40=2|44=1.0745|54=1|55=EUR/USD|60=20260505-07:38:58.228|10=091|
20260505-07:38:58.230: >>OUT>> 8=FIX.4.4|9=339|35=8|34=10|49=VENUE|52=20260505-07:38:58.230|56=TRADER|6=1.0745|11=CL-EURUSD-eda4368a-5766-4f65-92ad-8c983abb20ab|14=100000|17=EX-48f050d9-a660-4519-bfe9-f36501e425af|31=1.0745|32=100000|37=ORD-e3717c17-e94a-49af-bf7c-a128f52064d2|39=2|41=CL-EURUSD-eda4368a-5766-4f65-92ad-8c983abb20ab|54=1|55=EUR/USD|60=20260505-07:38:58.230|150=2|151=0|10=170|
20260505-07:38:59.230: <<IN<< 8=FIX.4.4|9=176|35=D|34=11|49=TRADER|52=20260505-07:38:59.229|56=VENUE|11=CL-EURUSD-87c60c78-9848-41d7-bb37-6452fc43723b|21=1|38=100000|40=2|44=1.0745|54=1|55=EUR/USD|60=20260505-07:38:59.229|10=126|
20260505-07:38:59.231: >>OUT>> 8=FIX.4.4|9=339|35=8|34=11|49=VENUE|52=20260505-07:38:59.231|56=TRADER|6=1.0745|11=CL-EURUSD-87c60c78-9848-41d7-bb37-6452fc43723b|14=100000|17=EX-57cd44b4-181d-4f78-a248-5c5f1ec4b4b5|31=1.0745|32=100000|37=ORD-9edd789d-d2a1-4bf6-a0e8-0bc582d7ceec|39=2|41=CL-EURUSD-87c60c78-9848-41d7-bb37-6452fc43723b|54=1|55=EUR/USD|60=20260505-07:38:59.231|150=2|151=0|10=062|
20260505-07:39:00.231: <<IN<< 8=FIX.4.4|9=176|35=D|34=12|49=TRADER|52=20260505-07:39:00.230|56=VENUE|11=CL-EURUSD-a8d44e03-ac63-40a8-98b3-735f81f6022e|21=1|38=100000|40=2|44=1.0745|54=1|55=EUR/USD|60=20260505-07:39:00.230|10=161|
20260505-07:39:00.232: >>OUT>> 8=FIX.4.4|9=339|35=8|34=12|49=VENUE|52=20260505-07:39:00.232|56=TRADER|6=1.0745|11=CL-EURUSD-a8d44e03-ac63-40a8-98b3-735f81f6022e|14=100000|17=EX-e1f1db8b-a0d2-4c3e-aee5-d097ef467e45|31=1.0745|32=100000|37=ORD-122cc25e-979d-4001-b027-65a847d50eb5|39=2|41=CL-EURUSD-a8d44e03-ac63-40a8-98b3-735f81f6022e|54=1|55=EUR/USD|60=20260505-07:39:00.232|150=2|151=0|10=235|
20260505-07:39:01.232: <<IN<< 8=FIX.4.4|9=176|35=D|34=13|49=TRADER|52=20260505-07:39:01.231|56=VENUE|11=CL-EURUSD-546f759a-3a9b-4841-b500-65a16174d4ff|21=1|38=100000|40=2|44=1.0745|54=1|55=EUR/USD|60=20260505-07:39:01.231|10=123|
20260505-07:39:01.233: >>OUT>> 8=FIX.4.4|9=339|35=8|34=13|49=VENUE|52=20260505-07:39:01.233|56=TRADER|6=1.0745|11=CL-EURUSD-546f759a-3a9b-4841-b500-65a16174d4ff|14=100000|17=EX-27fcf459-84ff-4d1a-b9ae-6201de29cc77|31=1.0745|32=100000|37=ORD-b629654d-0133-4220-89fe-5f9c3ea953f7|39=2|41=CL-EURUSD-546f759a-3a9b-4841-b500-65a16174d4ff|54=1|55=EUR/USD|60=20260505-07:39:01.233|150=2|151=0|10=094|
20260505-07:39:02.233: <<IN<< 8=FIX.4.4|9=176|35=D|34=14|49=TRADER|52=20260505-07:39:02.232|56=VENUE|11=CL-EURUSD-b7885994-dec4-4fea-bef9-2d579dde9bbd|21=1|38=100000|40=2|44=1.0745|54=1|55=EUR/USD|60=20260505-07:39:02.232|10=030|
20260505-07:39:02.234: >>OUT>> 8=FIX.4.4|9=339|35=8|34=14|49=VENUE|52=20260505-07:39:02.234|56=TRADER|6=1.0745|11=CL-EURUSD-b7885994-dec4-4fea-bef9-2d579dde9bbd|14=100000|17=EX-13ba6350-3782-44fb-b8e3-950b002e954d|31=1.0745|32=100000|37=ORD-8a2021e9-8d2a-4c63-b2ec-8c2fe7230c5c|39=2|41=CL-EURUSD-b7885994-dec4-4fea-bef9-2d579dde9bbd|54=1|55=EUR/USD|60=20260505-07:39:02.234|150=2|151=0|10=064|
20260505-07:39:03.234: <<IN<< 8=FIX.4.4|9=176|35=D|34=15|49=TRADER|52=20260505-07:39:03.233|56=VENUE|11=CL-EURUSD-897771c1-067c-475e-83d4-23a79902a7fd|21=1|38=100000|40=2|44=1.0745|54=1|55=EUR/USD|60=20260505-07:39:03.233|10=102|
20260505-07:39:03.235: >>OUT>> 8=FIX.4.4|9=339|35=8|34=15|49=VENUE|52=20260505-07:39:03.235|56=TRADER|6=1.0745|11=CL-EURUSD-897771c1-067c-475e-83d4-23a79902a7fd|14=100000|17=EX-5b62b68d-6829-4e79-89e5-ec57aac90daf|31=1.0745|32=100000|37=ORD-953ef90a-dc93-45ca-b6f8-adda4391676a|39=2|41=CL-EURUSD-897771c1-067c-475e-83d4-23a79902a7fd|54=1|55=EUR/USD|60=20260505-07:39:03.235|150=2|151=0|10=245|
20260505-07:39:04.235: <<IN<< 8=FIX.4.4|9=176|35=D|34=16|49=TRADER|52=20260505-07:39:04.234|56=VENUE|11=CL-EURUSD-f53482f0-3f4a-45b3-8fc4-58e143f946bf|21=1|38=100000|40=2|44=1.0745|54=1|55=EUR/USD|60=20260505-07:39:04.234|10=243|
20260505-07:39:04.236: >>OUT>> 8=FIX.4.4|9=339|35=8|34=16|49=VENUE|52=20260505-07:39:04.236|56=TRADER|6=1.0745|11=CL-EURUSD-f53482f0-3f4a-45b3-8fc4-58e143f946bf|14=100000|17=EX-5e909dd6-3c3d-46c6-beb9-61b7dce3079d|31=1.0745|32=100000|37=ORD-162dd7f5-8670-44b6-aacc-6044ba1ec64c|39=2|41=CL-EURUSD-f53482f0-3f4a-45b3-8fc4-58e143f946bf|54=1|55=EUR/USD|60=20260505-07:39:04.236|150=2|151=0|10=232|
20260505-07:39:05.236: <<IN<< 8=FIX.4.4|9=176|35=D|34=17|49=TRADER|52=20260505-07:39:05.235|56=VENUE|11=CL-EURUSD-b8a76779-b9a2-48c6-8e3b-4f50dd6b9870|21=1|38=100000|40=2|44=1.0745|54=1|55=EUR/USD|60=20260505-07:39:05.235|10=005|
20260505-07:39:05.237: >>OUT>> 8=FIX.4.4|9=339|35=8|34=17|49=VENUE|52=20260505-07:39:05.237|56=TRADER|6=1.0745|11=CL-EURUSD-b8a76779-b9a2-48c6-8e3b-4f50dd6b9870|14=100000|17=EX-f7c2f24e-b44e-4899-be3e-dea5822a1a40|31=1.0745|32=100000|37=ORD-e9f50e42-bfef-4842-9517-bf924ef4e195|39=2|41=CL-EURUSD-b8a76779-b9a2-48c6-8e3b-4f50dd6b9870|54=1|55=EUR/USD|60=20260505-07:39:05.237|150=2|151=0|10=235|
20260505-07:39:06.237: <<IN<< 8=FIX.4.4|9=176|35=D|34=18|49=TRADER|52=20260505-07:39:06.236|56=VENUE|11=CL-EURUSD-76905c69-661d-41f0-91c7-e31e2587bf0b|21=1|38=100000|40=2|44=1.0745|54=1|55=EUR/USD|60=20260505-07:39:06.236|10=154|
20260505-07:39:06.238: >>OUT>> 8=FIX.4.4|9=339|35=8|34=18|49=VENUE|52=20260505-07:39:06.238|56=TRADER|6=1.0745|11=CL-EURUSD-76905c69-661d-41f0-91c7-e31e2587bf0b|14=100000|17=EX-53288365-8314-4c39-b91c-c7a0c7d2489d|31=1.0745|32=100000|37=ORD-3dc21666-95ea-4146-9603-b656eb837206|39=2|41=CL-EURUSD-76905c69-661d-41f0-91c7-e31e2587bf0b|54=1|55=EUR/USD|60=20260505-07:39:06.238|150=2|151=0|10=252|
20260505-07:39:07.550: <<IN<< 8=FIX.4.4|9=176|35=D|34=19|49=TRADER|52=20260505-07:39:07.237|56=VENUE|11=CL-EURUSD-54cf7a9f-b20b-4767-ae6b-33ca1839cc98|21=1|38=100000|40=2|44=1.0745|54=1|55=EUR/USD|60=20260505-07:39:07.237|10=095|
20260505-07:39:07.551: >>OUT>> 8=FIX.4.4|9=339|35=8|34=19|49=VENUE|52=20260505-07:39:07.551|56=TRADER|6=1.0745|11=CL-EURUSD-54cf7a9f-b20b-4767-ae6b-33ca1839cc98|14=100000|17=EX-5b44c420-e3d4-4664-bc1d-fbc53e7370e7|31=1.0745|32=100000|37=ORD-4e83ee92-b6d4-475e-ac74-c317e4ac665a|39=2|41=CL-EURUSD-54cf7a9f-b20b-4767-ae6b-33ca1839cc98|54=1|55=EUR/USD|60=20260505-07:39:07.551|150=2|151=0|10=074|
20260505-07:39:08.967: <<IN<< 8=FIX.4.4|9=176|35=D|34=20|49=TRADER|52=20260505-07:39:08.238|56=VENUE|11=CL-EURUSD-b0e9044d-4709-4e82-a927-91163f9b464a|21=1|38=100000|40=2|44=1.0745|54=1|55=EUR/USD|60=20260505-07:39:08.238|10=106|
20260505-07:39:08.968: >>OUT>> 8=FIX.4.4|9=339|35=8|34=20|49=VENUE|52=20260505-07:39:08.968|56=TRADER|6=1.0745|11=CL-EURUSD-b0e9044d-4709-4e82-a927-91163f9b464a|14=100000|17=EX-07bb88ca-2e65-4be0-b86d-8527872c9cf5|31=1.0745|32=100000|37=ORD-31405861-65ae-402c-a50e-dea2637339af|39=2|41=CL-EURUSD-b0e9044d-4709-4e82-a927-91163f9b464a|54=1|55=EUR/USD|60=20260505-07:39:08.968|150=2|151=0|10=233|
20260505-07:39:09.515: <<IN<< 8=FIX.4.4|9=176|35=D|34=21|49=TRADER|52=20260505-07:39:09.239|56=VENUE|11=CL-EURUSD-b5fdf9ed-9f35-4bc7-ab3c-de0633dbde65|21=1|38=100000|40=2|44=1.0745|54=1|55=EUR/USD|60=20260505-07:39:09.238|10=076|
20260505-07:39:09.516: >>OUT>> 8=FIX.4.4|9=339|35=8|34=21|49=VENUE|52=20260505-07:39:09.516|56=TRADER|6=1.0745|11=CL-EURUSD-b5fdf9ed-9f35-4bc7-ab3c-de0633dbde65|14=100000|17=EX-f2eca586-798a-4fa5-abc5-2b199d0cc78b|31=1.0745|32=100000|37=ORD-7f31d7cc-01db-430e-836c-74b771d953b3|39=2|41=CL-EURUSD-b5fdf9ed-9f35-4bc7-ab3c-de0633dbde65|54=1|55=EUR/USD|60=20260505-07:39:09.516|150=2|151=0|10=087|
20260505-07:39:10.844: <<IN<< 8=FIX.4.4|9=176|35=D|34=22|49=TRADER|52=20260505-07:39:10.240|56=VENUE|11=CL-EURUSD-db464520-8a36-47f5-9f93-31bd470717dd|21=1|38=100000|40=2|44=1.0745|54=1|55=EUR/USD|60=20260505-07:39:10.239|10=136|
20260505-07:39:10.845: >>OUT>> 8=FIX.4.4|9=339|35=8|34=22|49=VENUE|52=20260505-07:39:10.845|56=TRADER|6=1.0745|11=CL-EURUSD-db464520-8a36-47f5-9f93-31bd470717dd|14=100000|17=EX-2cb196b7-827b-4c47-a84d-5a3b450ee2ce|31=1.0745|32=100000|37=ORD-c5daf2df-03ef-4ca1-9874-c0ad0241a8ba|39=2|41=CL-EURUSD-db464520-8a36-47f5-9f93-31bd470717dd|54=1|55=EUR/USD|60=20260505-07:39:10.845|150=2|151=0|10=104|
20260505-07:39:11.602: <<IN<< 8=FIX.4.4|9=176|35=D|34=23|49=TRADER|52=20260505-07:39:11.241|56=VENUE|11=CL-EURUSD-4c734b5e-cbd2-446c-a7a6-eebad4e523fe|21=1|38=100000|40=2|44=1.0745|54=1|55=EUR/USD|60=20260505-07:39:11.240|10=245|
20260505-07:39:11.606: >>OUT>> 8=FIX.4.4|9=339|35=8|34=23|49=VENUE|52=20260505-07:39:11.603|56=TRADER|6=1.0745|11=CL-EURUSD-4c734b5e-cbd2-446c-a7a6-eebad4e523fe|14=100000|17=EX-2398faa3-d3fc-40bf-90e9-a2557f28f43b|31=1.0745|32=100000|37=ORD-6a702ddc-a05f-4134-af50-ad46bd937aee|39=2|41=CL-EURUSD-4c734b5e-cbd2-446c-a7a6-eebad4e523fe|54=1|55=EUR/USD|60=20260505-07:39:11.603|150=2|151=0|10=027|
20260505-07:39:12.769: <<IN<< 8=FIX.4.4|9=176|35=D|34=24|49=TRADER|52=20260505-07:39:12.241|56=VENUE|11=CL-EURUSD-aa65b433-4241-46db-a2db-42845203c811|21=1|38=100000|40=2|44=1.0745|54=1|55=EUR/USD|60=20260505-07:39:12.241|10=100|
20260505-07:39:12.771: >>OUT>> 8=FIX.4.4|9=339|35=8|34=24|49=VENUE|52=20260505-07:39:12.770|56=TRADER|6=1.0745|11=CL-EURUSD-aa65b433-4241-46db-a2db-42845203c811|14=100000|17=EX-62599584-f6b5-4a1e-a675-62909180727d|31=1.0745|32=100000|37=ORD-38e442d0-02e0-4d42-a9f2-3eedb0ef59d4|39=2|41=CL-EURUSD-aa65b433-4241-46db-a2db-42845203c811|54=1|55=EUR/USD|60=20260505-07:39:12.770|150=2|151=0|10=102|
20260505-07:39:13.568: <<IN<< 8=FIX.4.4|9=176|35=D|34=25|49=TRADER|52=20260505-07:39:13.242|56=VENUE|11=CL-EURUSD-6c2b25e7-8759-4cff-8f96-ce90a1dd5d7f|21=1|38=100000|40=2|44=1.0745|54=1|55=EUR/USD|60=20260505-07:39:13.242|10=145|
20260505-07:39:13.569: >>OUT>> 8=FIX.4.4|9=339|35=8|34=25|49=VENUE|52=20260505-07:39:13.568|56=TRADER|6=1.0745|11=CL-EURUSD-6c2b25e7-8759-4cff-8f96-ce90a1dd5d7f|14=100000|17=EX-a679aa53-b9dc-4a49-b123-e32f5d3b3364|31=1.0745|32=100000|37=ORD-44c7208f-3197-49c0-9989-7fa31f057a70|39=2|41=CL-EURUSD-6c2b25e7-8759-4cff-8f96-ce90a1dd5d7f|54=1|55=EUR/USD|60=20260505-07:39:13.568|150=2|151=0|10=194|
20260505-07:39:14.820: <<IN<< 8=FIX.4.4|9=176|35=D|34=26|49=TRADER|52=20260505-07:39:14.243|56=VENUE|11=CL-EURUSD-7ef50582-b935-4795-b5bd-a0e3acf414c2|21=1|38=100000|40=2|44=1.0745|54=1|55=EUR/USD|60=20260505-07:39:14.243|10=024|
20260505-07:39:14.821: >>OUT>> 8=FIX.4.4|9=339|35=8|34=26|49=VENUE|52=20260505-07:39:14.821|56=TRADER|6=1.0745|11=CL-EURUSD-7ef50582-b935-4795-b5bd-a0e3acf414c2|14=100000|17=EX-c3155b34-2830-4f71-a151-832fde64579c|31=1.0745|32=100000|37=ORD-96cc83f6-c35d-4675-af28-f2899b476d6a|39=2|41=CL-EURUSD-7ef50582-b935-4795-b5bd-a0e3acf414c2|54=1|55=EUR/USD|60=20260505-07:39:14.821|150=2|151=0|10=202|
20260505-07:39:15.870: <<IN<< 8=FIX.4.4|9=176|35=D|34=27|49=TRADER|52=20260505-07:39:15.244|56=VENUE|11=CL-EURUSD-0f0b588d-949d-4807-ab99-1037d8e5c8f8|21=1|38=100000|40=2|44=1.0745|54=1|55=EUR/USD|60=20260505-07:39:15.244|10=218|
20260505-07:39:15.871: >>OUT>> 8=FIX.4.4|9=339|35=8|34=27|49=VENUE|52=20260505-07:39:15.871|56=TRADER|6=1.0745|11=CL-EURUSD-0f0b588d-949d-4807-ab99-1037d8e5c8f8|14=100000|17=EX-c7b6a602-79ba-4518-9f41-1588f1750ef7|31=1.0745|32=100000|37=ORD-601fa307-7e90-454a-9d3d-d93508fe7ace|39=2|41=CL-EURUSD-0f0b588d-949d-4807-ab99-1037d8e5c8f8|54=1|55=EUR/USD|60=20260505-07:39:15.871|150=2|151=0|10=166|
20260505-07:39:16.915: <<IN<< 8=FIX.4.4|9=176|35=D|34=28|49=TRADER|52=20260505-07:39:16.245|56=VENUE|11=CL-EURUSD-11322c54-4e68-416b-9292-65581c02a4f7|21=1|38=100000|40=2|44=1.0745|54=1|55=EUR/USD|60=20260505-07:39:16.245|10=001|
20260505-07:39:16.919: >>OUT>> 8=FIX.4.4|9=339|35=8|34=28|49=VENUE|52=20260505-07:39:16.916|56=TRADER|6=1.0745|11=CL-EURUSD-11322c54-4e68-416b-9292-65581c02a4f7|14=100000|17=EX-16c43473-c147-458e-8f99-2a324b0da04e|31=1.0745|32=100000|37=ORD-6190e658-eb32-42ca-99b0-fd94173460b7|39=2|41=CL-EURUSD-11322c54-4e68-416b-9292-65581c02a4f7|54=1|55=EUR/USD|60=20260505-07:39:16.916|150=2|151=0|10=078|
20260505-07:39:17.560: <<IN<< 8=FIX.4.4|9=176|35=D|34=29|49=TRADER|52=20260505-07:39:17.246|56=VENUE|11=CL-EURUSD-44f386a3-742b-4ad2-9ff0-846c6bd0084a|21=1|38=100000|40=2|44=1.0745|54=1|55=EUR/USD|60=20260505-07:39:17.245|10=246|
20260505-07:39:17.561: >>OUT>> 8=FIX.4.4|9=339|35=8|34=29|49=VENUE|52=20260505-07:39:17.560|56=TRADER|6=1.0745|11=CL-EURUSD-44f386a3-742b-4ad2-9ff0-846c6bd0084a|14=100000|17=EX-68e4c986-ae00-4fa5-a2e8-5bd07054a461|31=1.0745|32=100000|37=ORD-5aaa9e17-cfc6-4557-a858-f63682652f29|39=2|41=CL-EURUSD-44f386a3-742b-4ad2-9ff0-846c6bd0084a|54=1|55=EUR/USD|60=20260505-07:39:17.560|150=2|151=0|10=200|
20260505-07:39:18.453: <<IN<< 8=FIX.4.4|9=176|35=D|34=30|49=TRADER|52=20260505-07:39:18.247|56=VENUE|11=CL-EURUSD-76eaa5f1-b304-4f54-ae9a-39d4e2d49ba7|21=1|38=100000|40=2|44=1.0745|54=1|55=EUR/USD|60=20260505-07:39:18.246|10=132|
20260505-07:39:18.454: >>OUT>> 8=FIX.4.4|9=339|35=8|34=30|49=VENUE|52=20260505-07:39:18.454|56=TRADER|6=1.0745|11=CL-EURUSD-76eaa5f1-b304-4f54-ae9a-39d4e2d49ba7|14=100000|17=EX-720c3edf-28cb-4394-b137-a9bc4abfbeb9|31=1.0745|32=100000|37=ORD-e2891d5e-44ec-40bd-b2bb-581c5df32240|39=2|41=CL-EURUSD-76eaa5f1-b304-4f54-ae9a-39d4e2d49ba7|54=1|55=EUR/USD|60=20260505-07:39:18.454|150=2|151=0|10=068|
20260505-07:39:19.766: <<IN<< 8=FIX.4.4|9=176|35=D|34=31|49=TRADER|52=20260505-07:39:19.247|56=VENUE|11=CL-EURUSD-39eec99c-62fb-4aae-90b0-42e4afa95292|21=1|38=100000|40=2|44=1.0745|54=1|55=EUR/USD|60=20260505-07:39:19.247|10=140|
20260505-07:39:19.767: >>OUT>> 8=FIX.4.4|9=339|35=8|34=31|49=VENUE|52=20260505-07:39:19.767|56=TRADER|6=1.0745|11=CL-EURUSD-39eec99c-62fb-4aae-90b0-42e4afa95292|14=100000|17=EX-fe9c2464-6ce0-4f92-87a8-f1f655eea2bb|31=1.0745|32=100000|37=ORD-5bdb5abb-a091-4ce1-b953-a9e31e1911ff|39=2|41=CL-EURUSD-39eec99c-62fb-4aae-90b0-42e4afa95292|54=1|55=EUR/USD|60=20260505-07:39:19.767|150=2|151=0|10=111|
20260505-07:39:20.958: <<IN<< 8=FIX.4.4|9=176|35=D|34=32|49=TRADER|52=20260505-07:39:20.248|56=VENUE|11=CL-EURUSD-f91ce438-8bf3-4fb3-93ae-18aa56a98b33|21=1|38=100000|40=2|44=1.0745|54=1|55=EUR/USD|60=20260505-07:39:20.248|10=084|
20260505-07:39:20.959: >>OUT>> 8=FIX.4.4|9=339|35=8|34=32|49=VENUE|52=20260505-07:39:20.959|56=TRADER|6=1.0745|11=CL-EURUSD-f91ce438-8bf3-4fb3-93ae-18aa56a98b33|14=100000|17=EX-e7c8a31e-0b34-4e88-8255-7d7c45163cd2|31=1.0745|32=100000|37=ORD-cdd1f78d-ca7e-4e5b-a98d-23c685cfd429|39=2|41=CL-EURUSD-f91ce438-8bf3-4fb3-93ae-18aa56a98b33|54=1|55=EUR/USD|60=20260505-07:39:20.958|150=2|151=0|10=151|
20260505-07:39:21.536: <<IN<< 8=FIX.4.4|9=176|35=D|34=33|49=TRADER|52=20260505-07:39:21.249|56=VENUE|11=CL-EURUSD-ac3762ea-3c77-41cb-bc5c-3d6139442cd3|21=1|38=100000|40=2|44=1.0745|54=1|55=EUR/USD|60=20260505-07:39:21.249|10=067|
20260505-07:39:21.537: >>OUT>> 8=FIX.4.4|9=339|35=8|34=33|49=VENUE|52=20260505-07:39:21.537|56=TRADER|6=1.0745|11=CL-EURUSD-ac3762ea-3c77-41cb-bc5c-3d6139442cd3|14=100000|17=EX-0d15c805-e6d6-4c41-a841-60068df317e9|31=1.0745|32=100000|37=ORD-31e31ea0-ba2e-4a5c-bc3f-1e7c24a41a20|39=2|41=CL-EURUSD-ac3762ea-3c77-41cb-bc5c-3d6139442cd3|54=1|55=EUR/USD|60=20260505-07:39:21.537|150=2|151=0|10=188|
20260505-07:39:22.977: <<IN<< 8=FIX.4.4|9=176|35=D|34=34|49=TRADER|52=20260505-07:39:22.250|56=VENUE|11=CL-EURUSD-3a673e22-5905-4777-8c0d-e3207ccfbede|21=1|38=100000|40=2|44=1.0745|54=1|55=EUR/USD|60=20260505-07:39:22.250|10=022|
20260505-07:39:22.978: >>OUT>> 8=FIX.4.4|9=339|35=8|34=34|49=VENUE|52=20260505-07:39:22.978|56=TRADER|6=1.0745|11=CL-EURUSD-3a673e22-5905-4777-8c0d-e3207ccfbede|14=100000|17=EX-b03d92c8-4fa3-46d6-9aa6-c4cea80f2ffc|31=1.0745|32=100000|37=ORD-81a40e98-a0c2-41a2-9897-72cd06f3096e|39=2|41=CL-EURUSD-3a673e22-5905-4777-8c0d-e3207ccfbede|54=1|55=EUR/USD|60=20260505-07:39:22.977|150=2|151=0|10=240|
20260505-07:39:23.754: <<IN<< 8=FIX.4.4|9=176|35=D|34=35|49=TRADER|52=20260505-07:39:23.251|56=VENUE|11=CL-EURUSD-d9a188f7-2cb1-484d-b2a2-3a74a0078835|21=1|38=100000|40=2|44=1.0745|54=1|55=EUR/USD|60=20260505-07:39:23.251|10=180|
20260505-07:39:23.755: >>OUT>> 8=FIX.4.4|9=339|35=8|34=35|49=VENUE|52=20260505-07:39:23.755|56=TRADER|6=1.0745|11=CL-EURUSD-d9a188f7-2cb1-484d-b2a2-3a74a0078835|14=100000|17=EX-008fa75c-5fc5-4b48-95ae-3a38db077acc|31=1.0745|32=100000|37=ORD-ff94e649-0f21-41ca-8fec-f7cfd61c8600|39=2|41=CL-EURUSD-d9a188f7-2cb1-484d-b2a2-3a74a0078835|54=1|55=EUR/USD|60=20260505-07:39:23.755|150=2|151=0|10=173|
20260505-07:39:24.728: <<IN<< 8=FIX.4.4|9=176|35=D|34=36|49=TRADER|52=20260505-07:39:24.252|56=VENUE|11=CL-EURUSD-78fed3f5-10cf-40ca-bef7-55888bd7a843|21=1|38=100000|40=2|44=1.0745|54=1|55=EUR/USD|60=20260505-07:39:24.252|10=140|
20260505-07:39:24.729: >>OUT>> 8=FIX.4.4|9=339|35=8|34=36|49=VENUE|52=20260505-07:39:24.729|56=TRADER|6=1.0745|11=CL-EURUSD-78fed3f5-10cf-40ca-bef7-55888bd7a843|14=100000|17=EX-033e4486-1f76-4428-899c-15f7eb256216|31=1.0745|32=100000|37=ORD-b9f40199-794e-46d9-b9f3-80acc4b63234|39=2|41=CL-EURUSD-78fed3f5-10cf-40ca-bef7-55888bd7a843|54=1|55=EUR/USD|60=20260505-07:39:24.729|150=2|151=0|10=051|
20260505-07:39:25.917: <<IN<< 8=FIX.4.4|9=176|35=D|34=37|49=TRADER|52=20260505-07:39:25.253|56=VENUE|11=CL-EURUSD-c61edee6-b0d5-4331-b2aa-a43f98578cfc|21=1|38=100000|40=2|44=1.0745|54=1|55=EUR/USD|60=20260505-07:39:25.253|10=174|
20260505-07:39:25.918: >>OUT>> 8=FIX.4.4|9=339|35=8|34=37|49=VENUE|52=20260505-07:39:25.918|56=TRADER|6=1.0745|11=CL-EURUSD-c61edee6-b0d5-4331-b2aa-a43f98578cfc|14=100000|17=EX-65d859b2-0510-43f1-b9f4-85446727c6e1|31=1.0745|32=100000|37=ORD-68afd2e4-198f-49a6-ad63-5a506081fe1e|39=2|41=CL-EURUSD-c61edee6-b0d5-4331-b2aa-a43f98578cfc|54=1|55=EUR/USD|60=20260505-07:39:25.918|150=2|151=0|10=238|
20260505-07:39:26.321: <<IN<< 8=FIX.4.4|9=176|35=D|34=38|49=TRADER|52=20260505-07:39:26.254|56=VENUE|11=CL-EURUSD-429d9464-b49b-49e3-a3f1-2b920308394b|21=1|38=100000|40=2|44=1.0745|54=1|55=EUR/USD|60=20260505-07:39:26.253|10=107|
20260505-07:39:26.322: >>OUT>> 8=FIX.4.4|9=339|35=8|34=38|49=VENUE|52=20260505-07:39:26.322|56=TRADER|6=1.0745|11=CL-EURUSD-429d9464-b49b-49e3-a3f1-2b920308394b|14=100000|17=EX-a041b047-407b-42d7-bfff-9536843d2ff4|31=1.0745|32=100000|37=ORD-56c06843-d27e-413b-be1d-8bc5a284e55b|39=2|41=CL-EURUSD-429d9464-b49b-49e3-a3f1-2b920308394b|54=1|55=EUR/USD|60=20260505-07:39:26.322|150=2|151=0|10=246|
20260505-07:39:27.636: <<IN<< 8=FIX.4.4|9=176|35=D|34=39|49=TRADER|52=20260505-07:39:27.254|56=VENUE|11=CL-EURUSD-087d4ec1-3a35-4789-ad3e-e92f1a6af410|21=1|38=100000|40=2|44=1.0745|54=1|55=EUR/USD|60=20260505-07:39:27.254|10=039|
20260505-07:39:27.637: >>OUT>> 8=FIX.4.4|9=339|35=8|34=39|49=VENUE|52=20260505-07:39:27.637|56=TRADER|6=1.0745|11=CL-EURUSD-087d4ec1-3a35-4789-ad3e-e92f1a6af410|14=100000|17=EX-b9adb745-f120-458f-ba28-d6ab71d72bb3|31=1.0745|32=100000|37=ORD-a753d45b-7bf7-4347-a3e5-7efae11fd867|39=2|41=CL-EURUSD-087d4ec1-3a35-4789-ad3e-e92f1a6af410|54=1|55=EUR/USD|60=20260505-07:39:27.637|150=2|151=0|10=067|
20260505-07:39:28.592: <<IN<< 8=FIX.4.4|9=176|35=D|34=40|49=TRADER|52=20260505-07:39:28.255|56=VENUE|11=CL-EURUSD-252c315f-cca1-40b3-85c6-002ee25c9cc2|21=1|38=100000|40=2|44=1.0745|54=1|55=EUR/USD|60=20260505-07:39:28.255|10=013|
20260505-07:39:28.593: >>OUT>> 8=FIX.4.4|9=339|35=8|34=40|49=VENUE|52=20260505-07:39:28.593|56=TRADER|6=1.0745|11=CL-EURUSD-252c315f-cca1-40b3-85c6-002ee25c9cc2|14=100000|17=EX-9b61737d-e0c3-49be-a9e1-fb9320d3fe77|31=1.0745|32=100000|37=ORD-78f7e07f-ba17-44ac-a831-9403d144e268|39=2|41=CL-EURUSD-252c315f-cca1-40b3-85c6-002ee25c9cc2|54=1|55=EUR/USD|60=20260505-07:39:28.592|150=2|151=0|10=092|
20260505-07:39:29.577: <<IN<< 8=FIX.4.4|9=176|35=D|34=41|49=TRADER|52=20260505-07:39:29.256|56=VENUE|11=CL-EURUSD-6e79cc48-123c-4ae6-b76b-590abf65399c|21=1|38=100000|40=2|44=1.0745|54=1|55=EUR/USD|60=20260505-07:39:29.256|10=058|
20260505-07:39:29.578: >>OUT>> 8=FIX.4.4|9=339|35=8|34=41|49=VENUE|52=20260505-07:39:29.578|56=TRADER|6=1.0745|11=CL-EURUSD-6e79cc48-123c-4ae6-b76b-590abf65399c|14=100000|17=EX-ef0ce257-1d43-413b-ae6b-e4132e67f4a5|31=1.0745|32=100000|37=ORD-4e80b607-49dd-40dc-834b-796e122e94c4|39=2|41=CL-EURUSD-6e79cc48-123c-4ae6-b76b-590abf65399c|54=1|55=EUR/USD|60=20260505-07:39:29.578|150=2|151=0|10=166|
20260505-07:39:30.878: <<IN<< 8=FIX.4.4|9=176|35=D|34=42|49=TRADER|52=20260505-07:39:30.257|56=VENUE|11=CL-EURUSD-acdf7dcc-a2bb-43d2-b769-dd00ff3b0f9b|21=1|38=100000|40=2|44=1.0745|54=1|55=EUR/USD|60=20260505-07:39:30.257|10=097|
20260505-07:39:30.879: >>OUT>> 8=FIX.4.4|9=339|35=8|34=42|49=VENUE|52=20260505-07:39:30.879|56=TRADER|6=1.0745|11=CL-EURUSD-acdf7dcc-a2bb-43d2-b769-dd00ff3b0f9b|14=100000|17=EX-988f555c-b19d-4f60-a0da-b58fb5301162|31=1.0745|32=100000|37=ORD-83657f9e-98e5-4f0a-a50c-988cea3aef75|39=2|41=CL-EURUSD-acdf7dcc-a2bb-43d2-b769-dd00ff3b0f9b|54=1|55=EUR/USD|60=20260505-07:39:30.878|150=2|151=0|10=083|
20260505-07:39:31.635: <<IN<< 8=FIX.4.4|9=176|35=D|34=43|49=TRADER|52=20260505-07:39:31.258|56=VENUE|11=CL-EURUSD-c352d083-5e46-4814-a290-abe1786595a9|21=1|38=100000|40=2|44=1.0745|54=1|55=EUR/USD|60=20260505-07:39:31.258|10=105|
20260505-07:39:31.636: >>OUT>> 8=FIX.4.4|9=339|35=8|34=43|49=VENUE|52=20260505-07:39:31.636|56=TRADER|6=1.0745|11=CL-EURUSD-c352d083-5e46-4814-a290-abe1786595a9|14=100000|17=EX-4b5c2157-5941-4fe6-81c4-f1a7a17acf67|31=1.0745|32=100000|37=ORD-404a2bfd-5fac-4966-b8d5-a45ff8a8dea3|39=2|41=CL-EURUSD-c352d083-5e46-4814-a290-abe1786595a9|54=1|55=EUR/USD|60=20260505-07:39:31.636|150=2|151=0|10=200|
20260505-07:39:33.086: <<IN<< 8=FIX.4.4|9=176|35=D|34=44|49=TRADER|52=20260505-07:39:32.259|56=VENUE|11=CL-EURUSD-021a38a5-908c-4f33-bc2e-011e95cf7ba2|21=1|38=100000|40=2|44=1.0745|54=1|55=EUR/USD|60=20260505-07:39:32.259|10=021|
20260505-07:39:33.087: >>OUT>> 8=FIX.4.4|9=339|35=8|34=44|49=VENUE|52=20260505-07:39:33.087|56=TRADER|6=1.0745|11=CL-EURUSD-021a38a5-908c-4f33-bc2e-011e95cf7ba2|14=100000|17=EX-f8a55595-506f-4950-9fa6-53dad981ec16|31=1.0745|32=100000|37=ORD-fb8f9cab-6823-444d-9de3-3f2c739901ec|39=2|41=CL-EURUSD-021a38a5-908c-4f33-bc2e-011e95cf7ba2|54=1|55=EUR/USD|60=20260505-07:39:33.087|150=2|151=0|10=120|
20260505-07:39:33.625: <<IN<< 8=FIX.4.4|9=176|35=D|34=45|49=TRADER|52=20260505-07:39:33.260|56=VENUE|11=CL-EURUSD-fff9b59b-d574-45df-a6ea-83390dfba2e1|21=1|38=100000|40=2|44=1.0745|54=1|55=EUR/USD|60=20260505-07:39:33.259|10=238|
20260505-07:39:33.625: >>OUT>> 8=FIX.4.4|9=339|35=8|34=45|49=VENUE|52=20260505-07:39:33.625|56=TRADER|6=1.0745|11=CL-EURUSD-fff9b59b-d574-45df-a6ea-83390dfba2e1|14=100000|17=EX-103ed198-a025-43b2-9ede-1faa42931a8f|31=1.0745|32=100000|37=ORD-3006b3da-20fc-4f78-b34c-d128b3938744|39=2|41=CL-EURUSD-fff9b59b-d574-45df-a6ea-83390dfba2e1|54=1|55=EUR/USD|60=20260505-07:39:33.625|150=2|151=0|10=200|
20260505-07:39:34.998: <<IN<< 8=FIX.4.4|9=176|35=D|34=46|49=TRADER|52=20260505-07:39:34.260|56=VENUE|11=CL-EURUSD-594c465f-e3b2-4916-9f37-520921410ff1|21=1|38=100000|40=2|44=1.0745|54=1|55=EUR/USD|60=20260505-07:39:34.260|10=052|
20260505-07:39:34.999: >>OUT>> 8=FIX.4.4|9=339|35=8|34=46|49=VENUE|52=20260505-07:39:34.999|56=TRADER|6=1.0745|11=CL-EURUSD-594c465f-e3b2-4916-9f37-520921410ff1|14=100000|17=EX-0fb0ac90-7d09-47b2-b12f-9d8086f7fbb7|31=1.0745|32=100000|37=ORD-15a1cf50-35ba-4aeb-a8ce-2ae7f406ba1d|39=2|41=CL-EURUSD-594c465f-e3b2-4916-9f37-520921410ff1|54=1|55=EUR/USD|60=20260505-07:39:34.998|150=2|151=0|10=247|
20260505-07:39:35.875: <<IN<< 8=FIX.4.4|9=176|35=D|34=47|49=TRADER|52=20260505-07:39:35.261|56=VENUE|11=CL-EURUSD-4a95eb11-9d0f-432e-a955-c8cc3ae40172|21=1|38=100000|40=2|44=1.0745|54=1|55=EUR/USD|60=20260505-07:39:35.261|10=026|
20260505-07:39:35.876: >>OUT>> 8=FIX.4.4|9=339|35=8|34=47|49=VENUE|52=20260505-07:39:35.876|56=TRADER|6=1.0745|11=CL-EURUSD-4a95eb11-9d0f-432e-a955-c8cc3ae40172|14=100000|17=EX-2df528fa-48b2-4678-bdd8-7507b95802a1|31=1.0745|32=100000|37=ORD-e3305b82-6242-4cc5-87fe-f37a4b072562|39=2|41=CL-EURUSD-4a95eb11-9d0f-432e-a955-c8cc3ae40172|54=1|55=EUR/USD|60=20260505-07:39:35.876|150=2|151=0|10=196|
20260505-07:39:37.264: <<IN<< 8=FIX.4.4|9=176|35=D|34=48|49=TRADER|52=20260505-07:39:36.262|56=VENUE|11=CL-EURUSD-9aad75b8-3f24-4401-a559-627f4f9c5db8|21=1|38=100000|40=2|44=1.0745|54=1|55=EUR/USD|60=20260505-07:39:36.262|10=005|
20260505-07:39:37.264: <<IN<< 8=FIX.4.4|9=176|35=D|34=49|49=TRADER|52=20260505-07:39:37.263|56=VENUE|11=CL-EURUSD-cd67a960-c882-47b5-9907-35060e60fd6e|21=1|38=100000|40=2|44=1.0745|54=1|55=EUR/USD|60=20260505-07:39:37.263|10=173|
20260505-07:39:37.265: >>OUT>> 8=FIX.4.4|9=339|35=8|34=48|49=VENUE|52=20260505-07:39:37.265|56=TRADER|6=1.0745|11=CL-EURUSD-9aad75b8-3f24-4401-a559-627f4f9c5db8|14=100000|17=EX-fcc93593-bd3d-43f8-aafa-21e32288bba6|31=1.0745|32=100000|37=ORD-34c1b996-c417-4a70-9bff-ce3abea4c15e|39=2|41=CL-EURUSD-9aad75b8-3f24-4401-a559-627f4f9c5db8|54=1|55=EUR/USD|60=20260505-07:39:37.265|150=2|151=0|10=132|
20260505-07:39:37.266: >>OUT>> 8=FIX.4.4|9=339|35=8|34=49|49=VENUE|52=20260505-07:39:37.266|56=TRADER|6=1.0745|11=CL-EURUSD-cd67a960-c882-47b5-9907-35060e60fd6e|14=100000|17=EX-1ae8bfc1-94bd-466b-b54a-5a330e29a4bb|31=1.0745|32=100000|37=ORD-1d75e969-0632-4165-a696-7e41a7de5119|39=2|41=CL-EURUSD-cd67a960-c882-47b5-9907-35060e60fd6e|54=1|55=EUR/USD|60=20260505-07:39:37.265|150=2|151=0|10=083|
20260505-07:39:38.265: <<IN<< 8=FIX.4.4|9=176|35=D|34=50|49=TRADER|52=20260505-07:39:38.264|56=VENUE|11=CL-EURUSD-fcc58ec2-aa5b-4138-988c-ed21518af179|21=1|38=100000|40=2|44=1.0745|54=1|55=EUR/USD|60=20260505-07:39:38.264|10=097|
20260505-07:39:38.266: >>OUT>> 8=FIX.4.4|9=339|35=8|34=50|49=VENUE|52=20260505-07:39:38.265|56=TRADER|6=1.0745|11=CL-EURUSD-fcc58ec2-aa5b-4138-988c-ed21518af179|14=100000|17=EX-c32a4f21-2914-4713-bd94-ee546ef5754f|31=1.0745|32=100000|37=ORD-349a8d4c-7e4d-43d6-a5c6-3c775591b04d|39=2|41=CL-EURUSD-fcc58ec2-aa5b-4138-988c-ed21518af179|54=1|55=EUR/USD|60=20260505-07:39:38.265|150=2|151=0|10=155|
20260505-07:39:39.266: <<IN<< 8=FIX.4.4|9=176|35=D|34=51|49=TRADER|52=20260505-07:39:39.265|56=VENUE|11=CL-EURUSD-95e8dbe5-03f6-4e16-bcca-14df6923de82|21=1|38=100000|40=2|44=1.0745|54=1|55=EUR/USD|60=20260505-07:39:39.265|10=149|
20260505-07:39:39.267: >>OUT>> 8=FIX.4.4|9=339|35=8|34=51|49=VENUE|52=20260505-07:39:39.266|56=TRADER|6=1.0745|11=CL-EURUSD-95e8dbe5-03f6-4e16-bcca-14df6923de82|14=100000|17=EX-025a2564-bb59-4098-9a97-3f53149f4d5e|31=1.0745|32=100000|37=ORD-e205493b-df48-4fe8-a34a-141045b4d22e|39=2|41=CL-EURUSD-95e8dbe5-03f6-4e16-bcca-14df6923de82|54=1|55=EUR/USD|60=20260505-07:39:39.266|150=2|151=0|10=148|
20260505-07:39:40.267: <<IN<< 8=FIX.4.4|9=176|35=D|34=52|49=TRADER|52=20260505-07:39:40.266|56=VENUE|11=CL-EURUSD-ebfaa971-8cd4-41e0-b688-2bde94515920|21=1|38=100000|40=2|44=1.0745|54=1|55=EUR/USD|60=20260505-07:39:40.265|10=035|
20260505-07:39:40.268: >>OUT>> 8=FIX.4.4|9=339|35=8|34=52|49=VENUE|52=20260505-07:39:40.267|56=TRADER|6=1.0745|11=CL-EURUSD-ebfaa971-8cd4-41e0-b688-2bde94515920|14=100000|17=EX-e6ab9113-24f1-4a35-9116-4fc6816bf187|31=1.0745|32=100000|37=ORD-f9b7ce2d-41a1-4f19-9ebe-0de70426f6e3|39=2|41=CL-EURUSD-ebfaa971-8cd4-41e0-b688-2bde94515920|54=1|55=EUR/USD|60=20260505-07:39:40.267|150=2|151=0|10=127|
20260505-07:39:41.267: <<IN<< 8=FIX.4.4|9=176|35=D|34=53|49=TRADER|52=20260505-07:39:41.267|56=VENUE|11=CL-EURUSD-b0e71085-5696-4c75-8c11-7c2f928e31a2|21=1|38=100000|40=2|44=1.0745|54=1|55=EUR/USD|60=20260505-07:39:41.266|10=106|
20260505-07:39:41.268: >>OUT>> 8=FIX.4.4|9=339|35=8|34=53|49=VENUE|52=20260505-07:39:41.268|56=TRADER|6=1.0745|11=CL-EURUSD-b0e71085-5696-4c75-8c11-7c2f928e31a2|14=100000|17=EX-58483468-9eec-4a28-96ce-db8caa7d7b8d|31=1.0745|32=100000|37=ORD-282febe5-6227-407a-ac81-210c12c90785|39=2|41=CL-EURUSD-b0e71085-5696-4c75-8c11-7c2f928e31a2|54=1|55=EUR/USD|60=20260505-07:39:41.268|150=2|151=0|10=020|
20260505-07:39:42.268: <<IN<< 8=FIX.4.4|9=176|35=D|34=54|49=TRADER|52=20260505-07:39:42.267|56=VENUE|11=CL-EURUSD-3d7f542e-6253-441c-8fd3-3d8c5ec39bf5|21=1|38=100000|40=2|44=1.0745|54=1|55=EUR/USD|60=20260505-07:39:42.267|10=052|
20260505-07:39:42.272: >>OUT>> 8=FIX.4.4|9=339|35=8|34=54|49=VENUE|52=20260505-07:39:42.272|56=TRADER|6=1.0745|11=CL-EURUSD-3d7f542e-6253-441c-8fd3-3d8c5ec39bf5|14=100000|17=EX-d0c7f4d2-6df5-4ee5-8680-e0dc895c9650|31=1.0745|32=100000|37=ORD-cc69f807-5683-406a-93cf-d345e9c51bdc|39=2|41=CL-EURUSD-3d7f542e-6253-441c-8fd3-3d8c5ec39bf5|54=1|55=EUR/USD|60=20260505-07:39:42.272|150=2|151=0|10=219|
20260505-07:39:43.269: <<IN<< 8=FIX.4.4|9=176|35=D|34=55|49=TRADER|52=20260505-07:39:43.268|56=VENUE|11=CL-EURUSD-e25ffd66-e814-4825-bf54-dd1e84b57153|21=1|38=100000|40=2|44=1.0745|54=1|55=EUR/USD|60=20260505-07:39:43.268|10=011|
20260505-07:39:43.270: >>OUT>> 8=FIX.4.4|9=339|35=8|34=55|49=VENUE|52=20260505-07:39:43.270|56=TRADER|6=1.0745|11=CL-EURUSD-e25ffd66-e814-4825-bf54-dd1e84b57153|14=100000|17=EX-af891797-0dcb-4c71-9a06-dc5a12b32eec|31=1.0745|32=100000|37=ORD-02c0c7b6-dba2-4e28-b799-40819f5abd47|39=2|41=CL-EURUSD-e25ffd66-e814-4825-bf54-dd1e84b57153|54=1|55=EUR/USD|60=20260505-07:39:43.270|150=2|151=0|10=182|
20260505-07:39:44.270: <<IN<< 8=FIX.4.4|9=176|35=D|34=56|49=TRADER|52=20260505-07:39:44.269|56=VENUE|11=CL-EURUSD-e1a2f7c0-1687-41b1-b047-891aaa4e83ad|21=1|38=100000|40=2|44=1.0745|54=1|55=EUR/USD|60=20260505-07:39:44.269|10=035|
20260505-07:39:44.271: >>OUT>> 8=FIX.4.4|9=339|35=8|34=56|49=VENUE|52=20260505-07:39:44.271|56=TRADER|6=1.0745|11=CL-EURUSD-e1a2f7c0-1687-41b1-b047-891aaa4e83ad|14=100000|17=EX-55e6ce8f-cf0a-4dfc-85fb-a2975e2b763d|31=1.0745|32=100000|37=ORD-2812eb7d-3b18-4d56-95f3-d9c0c6cccf4a|39=2|41=CL-EURUSD-e1a2f7c0-1687-41b1-b047-891aaa4e83ad|54=1|55=EUR/USD|60=20260505-07:39:44.271|150=2|151=0|10=184|
20260505-07:39:45.271: <<IN<< 8=FIX.4.4|9=176|35=D|34=57|49=TRADER|52=20260505-07:39:45.270|56=VENUE|11=CL-EURUSD-544a25b0-be54-4ba4-a481-5cb8445b0932|21=1|38=100000|40=2|44=1.0745|54=1|55=EUR/USD|60=20260505-07:39:45.270|10=179|
20260505-07:39:45.272: >>OUT>> 8=FIX.4.4|9=339|35=8|34=57|49=VENUE|52=20260505-07:39:45.271|56=TRADER|6=1.0745|11=CL-EURUSD-544a25b0-be54-4ba4-a481-5cb8445b0932|14=100000|17=EX-f9f3510c-edc3-4e4d-a1f9-87e7ee85f5be|31=1.0745|32=100000|37=ORD-8d70374c-264a-42f6-9521-4ba7baaee48a|39=2|41=CL-EURUSD-544a25b0-be54-4ba4-a481-5cb8445b0932|54=1|55=EUR/USD|60=20260505-07:39:45.271|150=2|151=0|10=148|
20260505-07:39:46.271: <<IN<< 8=FIX.4.4|9=176|35=D|34=58|49=TRADER|52=20260505-07:39:46.271|56=VENUE|11=CL-EURUSD-770bc9db-c68e-4888-be78-a80c4dd0076d|21=1|38=100000|40=2|44=1.0745|54=1|55=EUR/USD|60=20260505-07:39:46.271|10=108|
20260505-07:39:46.272: >>OUT>> 8=FIX.4.4|9=339|35=8|34=58|49=VENUE|52=20260505-07:39:46.272|56=TRADER|6=1.0745|11=CL-EURUSD-770bc9db-c68e-4888-be78-a80c4dd0076d|14=100000|17=EX-890dd294-edb8-4d59-96ef-6366e3f257b9|31=1.0745|32=100000|37=ORD-b6f8e4e2-1e47-413b-b437-601cc59fda4f|39=2|41=CL-EURUSD-770bc9db-c68e-4888-be78-a80c4dd0076d|54=1|55=EUR/USD|60=20260505-07:39:46.272|150=2|151=0|10=086|
20260505-07:39:47.272: <<IN<< 8=FIX.4.4|9=176|35=D|34=59|49=TRADER|52=20260505-07:39:47.272|56=VENUE|11=CL-EURUSD-ba094f0f-1586-498d-96cd-98e5a6b8af68|21=1|38=100000|40=2|44=1.0745|54=1|55=EUR/USD|60=20260505-07:39:47.271|10=077|
20260505-07:39:47.273: >>OUT>> 8=FIX.4.4|9=339|35=8|34=59|49=VENUE|52=20260505-07:39:47.273|56=TRADER|6=1.0745|11=CL-EURUSD-ba094f0f-1586-498d-96cd-98e5a6b8af68|14=100000|17=EX-1a955810-e12e-4aa7-a84a-577d9e692b87|31=1.0745|32=100000|37=ORD-b83c9657-9822-49fb-ae12-8bab785f4778|39=2|41=CL-EURUSD-ba094f0f-1586-498d-96cd-98e5a6b8af68|54=1|55=EUR/USD|60=20260505-07:39:47.273|150=2|151=0|10=089|
20260505-07:39:48.273: <<IN<< 8=FIX.4.4|9=176|35=D|34=60|49=TRADER|52=20260505-07:39:48.272|56=VENUE|11=CL-EURUSD-61ded91d-1088-4f52-a855-bc69c959058d|21=1|38=100000|40=2|44=1.0745|54=1|55=EUR/USD|60=20260505-07:39:48.272|10=222|
20260505-07:39:48.274: >>OUT>> 8=FIX.4.4|9=339|35=8|34=60|49=VENUE|52=20260505-07:39:48.274|56=TRADER|6=1.0745|11=CL-EURUSD-61ded91d-1088-4f52-a855-bc69c959058d|14=100000|17=EX-f029bfbb-6bf1-40b8-a2d5-cc2e7841a892|31=1.0745|32=100000|37=ORD-2787370d-b76d-4fb0-bc98-9910c4c9e83f|39=2|41=CL-EURUSD-61ded91d-1088-4f52-a855-bc69c959058d|54=1|55=EUR/USD|60=20260505-07:39:48.274|150=2|151=0|10=087|
20260505-07:39:49.274: <<IN<< 8=FIX.4.4|9=176|35=D|34=61|49=TRADER|52=20260505-07:39:49.273|56=VENUE|11=CL-EURUSD-dbab0bb4-0d6c-447b-bfec-0f1fdb5752cc|21=1|38=100000|40=2|44=1.0745|54=1|55=EUR/USD|60=20260505-07:39:49.273|10=104|
20260505-07:39:49.275: >>OUT>> 8=FIX.4.4|9=339|35=8|34=61|49=VENUE|52=20260505-07:39:49.275|56=TRADER|6=1.0745|11=CL-EURUSD-dbab0bb4-0d6c-447b-bfec-0f1fdb5752cc|14=100000|17=EX-2b9e76b9-a221-49a6-ad91-3198afc95b50|31=1.0745|32=100000|37=ORD-d7dd1dfb-d7be-40ec-b22d-8a472207021d|39=2|41=CL-EURUSD-dbab0bb4-0d6c-447b-bfec-0f1fdb5752cc|54=1|55=EUR/USD|60=20260505-07:39:49.275|150=2|151=0|10=121|
20260505-07:39:50.275: <<IN<< 8=FIX.4.4|9=176|35=D|34=62|49=TRADER|52=20260505-07:39:50.274|56=VENUE|11=CL-EURUSD-24e30a85-e620-4683-99e4-8315ee02fab7|21=1|38=100000|40=2|44=1.0745|54=1|55=EUR/USD|60=20260505-07:39:50.274|10=150|
20260505-07:39:50.279: >>OUT>> 8=FIX.4.4|9=339|35=8|34=62|49=VENUE|52=20260505-07:39:50.279|56=TRADER|6=1.0745|11=CL-EURUSD-24e30a85-e620-4683-99e4-8315ee02fab7|14=100000|17=EX-1b44561c-bc2c-4136-9cfe-9658b478290c|31=1.0745|32=100000|37=ORD-de4e418b-9cac-4cf4-83ad-1658371227ae|39=2|41=CL-EURUSD-24e30a85-e620-4683-99e4-8315ee02fab7|54=1|55=EUR/USD|60=20260505-07:39:50.279|150=2|151=0|10=109|
20260505-07:39:51.276: <<IN<< 8=FIX.4.4|9=176|35=D|34=63|49=TRADER|52=20260505-07:39:51.275|56=VENUE|11=CL-EURUSD-6a3fbbb5-99ad-402d-9589-e19d5fa6237f|21=1|38=100000|40=2|44=1.0745|54=1|55=EUR/USD|60=20260505-07:39:51.275|10=103|
20260505-07:39:51.277: >>OUT>> 8=FIX.4.4|9=339|35=8|34=63|49=VENUE|52=20260505-07:39:51.277|56=TRADER|6=1.0745|11=CL-EURUSD-6a3fbbb5-99ad-402d-9589-e19d5fa6237f|14=100000|17=EX-bebae910-d1c1-4ce1-a51a-5d321dcf3c25|31=1.0745|32=100000|37=ORD-504676c7-3dc0-40c2-95e6-c0cae36d0c6a|39=2|41=CL-EURUSD-6a3fbbb5-99ad-402d-9589-e19d5fa6237f|54=1|55=EUR/USD|60=20260505-07:39:51.277|150=2|151=0|10=191|
20260505-07:39:52.277: <<IN<< 8=FIX.4.4|9=176|35=D|34=64|49=TRADER|52=20260505-07:39:52.276|56=VENUE|11=CL-EURUSD-950ca878-0111-4fdb-863a-9ed67fa662a4|21=1|38=100000|40=2|44=1.0745|54=1|55=EUR/USD|60=20260505-07:39:52.276|10=001|
20260505-07:39:52.278: >>OUT>> 8=FIX.4.4|9=339|35=8|34=64|49=VENUE|52=20260505-07:39:52.278|56=TRADER|6=1.0745|11=CL-EURUSD-950ca878-0111-4fdb-863a-9ed67fa662a4|14=100000|17=EX-659fc26b-39d4-4103-b6a7-d90e0929d144|31=1.0745|32=100000|37=ORD-658e60a4-d223-42d3-95fd-2c16f51a56a8|39=2|41=CL-EURUSD-950ca878-0111-4fdb-863a-9ed67fa662a4|54=1|55=EUR/USD|60=20260505-07:39:52.278|150=2|151=0|10=111|
20260505-07:39:53.278: <<IN<< 8=FIX.4.4|9=176|35=D|34=65|49=TRADER|52=20260505-07:39:53.277|56=VENUE|11=CL-EURUSD-a3ce54f6-a60c-45d5-846f-1c55cd5e43e6|21=1|38=100000|40=2|44=1.0745|54=1|55=EUR/USD|60=20260505-07:39:53.277|10=101|
20260505-07:39:53.279: >>OUT>> 8=FIX.4.4|9=339|35=8|34=65|49=VENUE|52=20260505-07:39:53.279|56=TRADER|6=1.0745|11=CL-EURUSD-a3ce54f6-a60c-45d5-846f-1c55cd5e43e6|14=100000|17=EX-b5455568-572f-4fa6-914c-e0ecdcbd640f|31=1.0745|32=100000|37=ORD-3d2e6c5e-b3ed-4c19-853f-b8b088897214|39=2|41=CL-EURUSD-a3ce54f6-a60c-45d5-846f-1c55cd5e43e6|54=1|55=EUR/USD|60=20260505-07:39:53.279|150=2|151=0|10=053|
20260505-07:39:54.279: <<IN<< 8=FIX.4.4|9=176|35=D|34=66|49=TRADER|52=20260505-07:39:54.278|56=VENUE|11=CL-EURUSD-b3369f2d-1819-4ead-b756-2b3e3c965f91|21=1|38=100000|40=2|44=1.0745|54=1|55=EUR/USD|60=20260505-07:39:54.278|10=018|
20260505-07:39:54.280: >>OUT>> 8=FIX.4.4|9=339|35=8|34=66|49=VENUE|52=20260505-07:39:54.280|56=TRADER|6=1.0745|11=CL-EURUSD-b3369f2d-1819-4ead-b756-2b3e3c965f91|14=100000|17=EX-abf75071-2111-4119-a1aa-f43215f4c6ec|31=1.0745|32=100000|37=ORD-d0ef43db-0cee-4570-b411-c91036f335ed|39=2|41=CL-EURUSD-b3369f2d-1819-4ead-b756-2b3e3c965f91|54=1|55=EUR/USD|60=20260505-07:39:54.280|150=2|151=0|10=053|
20260505-07:39:55.280: <<IN<< 8=FIX.4.4|9=176|35=D|34=67|49=TRADER|52=20260505-07:39:55.279|56=VENUE|11=CL-EURUSD-1d3873f0-8ede-4360-ae3a-4d20dfb12ad8|21=1|38=100000|40=2|44=1.0745|54=1|55=EUR/USD|60=20260505-07:39:55.279|10=140|
20260505-07:39:55.281: >>OUT>> 8=FIX.4.4|9=339|35=8|34=67|49=VENUE|52=20260505-07:39:55.280|56=TRADER|6=1.0745|11=CL-EURUSD-1d3873f0-8ede-4360-ae3a-4d20dfb12ad8|14=100000|17=EX-80043869-5419-455d-93f5-3d527be3c74e|31=1.0745|32=100000|37=ORD-cbe9d606-cc21-433c-9b91-1b2a1e6eb012|39=2|41=CL-EURUSD-1d3873f0-8ede-4360-ae3a-4d20dfb12ad8|54=1|55=EUR/USD|60=20260505-07:39:55.280|150=2|151=0|10=138|
20260505-07:39:56.280: <<IN<< 8=FIX.4.4|9=176|35=D|34=68|49=TRADER|52=20260505-07:39:56.280|56=VENUE|11=CL-EURUSD-e9205074-323b-435d-9909-00b079a21ad8|21=1|38=100000|40=2|44=1.0745|54=1|55=EUR/USD|60=20260505-07:39:56.280|10=052|
20260505-07:39:56.281: >>OUT>> 8=FIX.4.4|9=339|35=8|34=68|49=VENUE|52=20260505-07:39:56.281|56=TRADER|6=1.0745|11=CL-EURUSD-e9205074-323b-435d-9909-00b079a21ad8|14=100000|17=EX-d4577e38-1626-4476-9211-50de21537ffc|31=1.0745|32=100000|37=ORD-8c4920da-219a-4c56-b25a-6ea12a3cbd7b|39=2|41=CL-EURUSD-e9205074-323b-435d-9909-00b079a21ad8|54=1|55=EUR/USD|60=20260505-07:39:56.281|150=2|151=0|10=035|
20260505-07:39:57.281: <<IN<< 8=FIX.4.4|9=176|35=D|34=69|49=TRADER|52=20260505-07:39:57.280|56=VENUE|11=CL-EURUSD-10409757-e94f-48ef-b70c-4a4adae30c2f|21=1|38=100000|40=2|44=1.0745|54=1|55=EUR/USD|60=20260505-07:39:57.280|10=093|
20260505-07:39:57.282: >>OUT>> 8=FIX.4.4|9=339|35=8|34=69|49=VENUE|52=20260505-07:39:57.282|56=TRADER|6=1.0745|11=CL-EURUSD-10409757-e94f-48ef-b70c-4a4adae30c2f|14=100000|17=EX-9f9c42a8-4e54-4b5a-b592-5e310b23bf60|31=1.0745|32=100000|37=ORD-a2f0528c-0e95-4ba8-bab8-6db95bb665c6|39=2|41=CL-EURUSD-10409757-e94f-48ef-b70c-4a4adae30c2f|54=1|55=EUR/USD|60=20260505-07:39:57.282|150=2|151=0|10=059|
20260505-07:39:58.282: <<IN<< 8=FIX.4.4|9=176|35=D|34=70|49=TRADER|52=20260505-07:39:58.281|56=VENUE|11=CL-EURUSD-64cd4518-017b-4364-a5d9-aff4e1c984e3|21=1|38=100000|40=2|44=1.0745|54=1|55=EUR/USD|60=20260505-07:39:58.281|10=003|
20260505-07:39:58.283: >>OUT>> 8=FIX.4.4|9=339|35=8|34=70|49=VENUE|52=20260505-07:39:58.283|56=TRADER|6=1.0745|11=CL-EURUSD-64cd4518-017b-4364-a5d9-aff4e1c984e3|14=100000|17=EX-0bd6ee93-e878-4da5-8ed3-1ebe557bf29a|31=1.0745|32=100000|37=ORD-6a350a88-06ea-40ab-aa09-cacd7399e4a6|39=2|41=CL-EURUSD-64cd4518-017b-4364-a5d9-aff4e1c984e3|54=1|55=EUR/USD|60=20260505-07:39:58.283|150=2|151=0|10=083|
20260505-07:39:59.283: <<IN<< 8=FIX.4.4|9=176|35=D|34=71|49=TRADER|52=20260505-07:39:59.282|56=VENUE|11=CL-EURUSD-177889b8-1406-4374-9225-f771a8b0641e|21=1|38=100000|40=2|44=1.0745|54=1|55=EUR/USD|60=20260505-07:39:59.282|10=241|
20260505-07:39:59.284: >>OUT>> 8=FIX.4.4|9=339|35=8|34=71|49=VENUE|52=20260505-07:39:59.284|56=TRADER|6=1.0745|11=CL-EURUSD-177889b8-1406-4374-9225-f771a8b0641e|14=100000|17=EX-f1f655db-7943-4410-95bd-48bfb169086d|31=1.0745|32=100000|37=ORD-ed65fc19-ef55-48a2-978c-500eed10c148|39=2|41=CL-EURUSD-177889b8-1406-4374-9225-f771a8b0641e|54=1|55=EUR/USD|60=20260505-07:39:59.284|150=2|151=0|10=236|
20260505-07:40:00.284: <<IN<< 8=FIX.4.4|9=176|35=D|34=72|49=TRADER|52=20260505-07:40:00.283|56=VENUE|11=CL-EURUSD-5293232c-7464-473e-a761-c5d0aec2cc5f|21=1|38=100000|40=2|44=1.0745|54=1|55=EUR/USD|60=20260505-07:40:00.283|10=211|
20260505-07:40:00.285: >>OUT>> 8=FIX.4.4|9=339|35=8|34=72|49=VENUE|52=20260505-07:40:00.284|56=TRADER|6=1.0745|11=CL-EURUSD-5293232c-7464-473e-a761-c5d0aec2cc5f|14=100000|17=EX-e4b548d0-1f64-4ee7-81dc-579b24894334|31=1.0745|32=100000|37=ORD-66a9fe2b-b6c1-4fba-bfcf-226c3b879a77|39=2|41=CL-EURUSD-5293232c-7464-473e-a761-c5d0aec2cc5f|54=1|55=EUR/USD|60=20260505-07:40:00.284|150=2|151=0|10=104|
20260505-07:40:01.285: <<IN<< 8=FIX.4.4|9=176|35=D|34=73|49=TRADER|52=20260505-07:40:01.284|56=VENUE|11=CL-EURUSD-d9afe590-b9ba-487e-b1ff-3d710a0b8034|21=1|38=100000|40=2|44=1.0745|54=1|55=EUR/USD|60=20260505-07:40:01.284|10=105|
20260505-07:40:01.285: >>OUT>> 8=FIX.4.4|9=339|35=8|34=73|49=VENUE|52=20260505-07:40:01.285|56=TRADER|6=1.0745|11=CL-EURUSD-d9afe590-b9ba-487e-b1ff-3d710a0b8034|14=100000|17=EX-0080579c-8ad1-4b3b-ba6f-7c6d96ed5aee|31=1.0745|32=100000|37=ORD-ed6018de-6e81-4c9a-bbdb-77d32fd8f99c|39=2|41=CL-EURUSD-d9afe590-b9ba-487e-b1ff-3d710a0b8034|54=1|55=EUR/USD|60=20260505-07:40:01.285|150=2|151=0|10=173|
20260505-07:40:02.285: <<IN<< 8=FIX.4.4|9=176|35=D|34=74|49=TRADER|52=20260505-07:40:02.285|56=VENUE|11=CL-EURUSD-a67ed2a4-9436-4129-8ee0-db16ba5478c5|21=1|38=100000|40=2|44=1.0745|54=1|55=EUR/USD|60=20260505-07:40:02.284|10=230|
20260505-07:40:02.286: >>OUT>> 8=FIX.4.4|9=339|35=8|34=74|49=VENUE|52=20260505-07:40:02.286|56=TRADER|6=1.0745|11=CL-EURUSD-a67ed2a4-9436-4129-8ee0-db16ba5478c5|14=100000|17=EX-3a447f57-6872-4016-85f4-78a960dd73ca|31=1.0745|32=100000|37=ORD-a2569718-c99c-4d01-ad18-82f89936dbb0|39=2|41=CL-EURUSD-a67ed2a4-9436-4129-8ee0-db16ba5478c5|54=1|55=EUR/USD|60=20260505-07:40:02.286|150=2|151=0|10=064|
20260505-07:40:03.286: <<IN<< 8=FIX.4.4|9=176|35=D|34=75|49=TRADER|52=20260505-07:40:03.285|56=VENUE|11=CL-EURUSD-3e4208c3-8257-4ec9-b306-15a69b17bb77|21=1|38=100000|40=2|44=1.0745|54=1|55=EUR/USD|60=20260505-07:40:03.285|10=136|
20260505-07:40:03.287: >>OUT>> 8=FIX.4.4|9=339|35=8|34=75|49=VENUE|52=20260505-07:40:03.287|56=TRADER|6=1.0745|11=CL-EURUSD-3e4208c3-8257-4ec9-b306-15a69b17bb77|14=100000|17=EX-0e841b45-4d34-4768-87c0-b1b873406343|31=1.0745|32=100000|37=ORD-a52a6d45-79c9-4ce2-8a01-2b384efe02e7|39=2|41=CL-EURUSD-3e4208c3-8257-4ec9-b306-15a69b17bb77|54=1|55=EUR/USD|60=20260505-07:40:03.287|150=2|151=0|10=096|
20260505-07:40:04.287: <<IN<< 8=FIX.4.4|9=176|35=D|34=76|49=TRADER|52=20260505-07:40:04.286|56=VENUE|11=CL-EURUSD-435ca86a-d218-45be-a294-8a8bf05a32b9|21=1|38=100000|40=2|44=1.0745|54=1|55=EUR/USD|60=20260505-07:40:04.286|10=022|
20260505-07:40:04.288: >>OUT>> 8=FIX.4.4|9=339|35=8|34=76|49=VENUE|52=20260505-07:40:04.288|56=TRADER|6=1.0745|11=CL-EURUSD-435ca86a-d218-45be-a294-8a8bf05a32b9|14=100000|17=EX-041989fb-44d3-44cb-b2da-6099f68216f1|31=1.0745|32=100000|37=ORD-3b6a8436-f005-448a-a27a-37c481f8d119|39=2|41=CL-EURUSD-435ca86a-d218-45be-a294-8a8bf05a32b9|54=1|55=EUR/USD|60=20260505-07:40:04.288|150=2|151=0|10=171|
20260505-07:40:34.862: >>OUT>> 8=FIX.4.4|9=55|35=0|34=77|49=VENUE|52=20260505-07:40:34.862|56=TRADER|10=094|
20260505-07:40:34.864: <<IN<< 8=FIX.4.4|9=55|35=0|34=77|49=TRADER|52=20260505-07:40:34.864|56=VENUE|10=096|
20260505-07:41:04.861: >>OUT>> 8=FIX.4.4|9=55|35=0|34=78|49=VENUE|52=20260505-07:41:04.861|56=TRADER|10=092|
20260505-07:41:04.863: <<IN<< 8=FIX.4.4|9=55|35=0|34=78|49=TRADER|52=20260505-07:41:04.863|56=VENUE|10=094|
20260505-07:41:34.861: >>OUT>> 8=FIX.4.4|9=55|35=0|34=79|49=VENUE|52=20260505-07:41:34.861|56=TRADER|10=096|
20260505-07:41:34.863: <<IN<< 8=FIX.4.4|9=55|35=0|34=79|49=TRADER|52=20260505-07:41:34.863|56=VENUE|10=098|
20260505-07:41:56.074: <<IN<< 8=FIX.4.4|9=55|35=5|34=80|49=TRADER|52=20260505-07:41:56.073|56=VENUE|10=092|
20260505-07:41:56.075: >>OUT>> 8=FIX.4.4|9=55|35=5|34=80|49=VENUE|52=20260505-07:41:56.074|56=TRADER|10=093|
