20260424-10:32:31.117: >>OUT>> 8=FIX.4.4|9=66|35=A|34=23|49=TRADER|52=20260424-10:32:31.116|56=VENUE|98=0|108=5|10=067|
20260424-10:32:31.171: <<IN<< 8=FIX.4.4|9=66|35=A|34=24|49=VENUE|52=20260424-10:32:31.166|56=TRADER|98=0|108=5|10=073|
20260424-10:32:31.204: >>OUT>> 8=FIX.4.4|9=176|35=D|34=24|49=TRADER|52=20260424-10:32:31.204|56=VENUE|11=CL-EURUSD-76e0bfc2-acf9-451a-8a63-e8d6de722115|21=1|38=100000|40=2|44=1.0745|54=1|55=EUR/USD|60=20260424-10:32:31.203|10=036|
20260424-10:32:31.241: <<IN<< 8=FIX.4.4|9=339|35=8|34=25|49=VENUE|52=20260424-10:32:31.240|56=TRADER|6=1.0745|11=CL-EURUSD-76e0bfc2-acf9-451a-8a63-e8d6de722115|14=100000|17=EX-91cd4b6d-970d-4fe8-9429-e4dce68a65d5|31=1.0745|32=100000|37=ORD-5a1968d3-8a30-49ad-b53f-0471ff17c37f|39=2|41=CL-EURUSD-76e0bfc2-acf9-451a-8a63-e8d6de722115|54=1|55=EUR/USD|60=20260424-10:32:31.240|150=2|151=0|10=246|
20260424-10:32:37.073: >>OUT>> 8=FIX.4.4|9=55|35=0|34=25|49=TRADER|52=20260424-10:32:37.073|56=VENUE|10=079|
20260424-10:32:39.073: >>OUT>> 8=FIX.4.4|9=64|35=1|34=26|49=TRADER|52=20260424-10:32:39.072|56=VENUE|112=TEST|10=100|
20260424-10:32:50.259: >>OUT>> 8=FIX.4.4|9=66|35=A|34=27|49=TRADER|52=20260424-10:32:50.259|56=VENUE|98=0|108=5|10=080|
20260424-10:32:50.262: <<IN<< 8=FIX.4.4|9=66|35=A|34=29|49=VENUE|52=20260424-10:32:50.261|56=TRADER|98=0|108=5|10=075|
20260424-10:32:50.263: <<IN<< 8=FIX.4.4|9=65|35=2|34=30|49=VENUE|52=20260424-10:32:50.262|56=TRADER|7=26|16=0|10=251|
20260424-10:32:50.263: >>OUT>> 8=FIX.4.4|9=65|35=2|34=28|49=TRADER|52=20260424-10:32:50.262|56=VENUE|7=26|16=0|10=002|
20260424-10:32:50.263: >>OUT>> 8=FIX.4.4|9=98|35=4|34=26|43=Y|49=TRADER|52=20260424-10:32:50.263|56=VENUE|122=20260424-10:32:50.263|36=29|123=Y|10=144|
20260424-10:32:50.265: <<IN<< 8=FIX.4.4|9=98|35=4|34=26|43=Y|49=VENUE|52=20260424-10:32:50.264|56=TRADER|122=20260424-10:32:50.264|36=31|123=Y|10=139|
20260424-10:32:55.886: <<IN<< 8=FIX.4.4|9=55|35=0|34=31|49=VENUE|52=20260424-10:32:55.885|56=TRADER|10=087|
20260424-10:32:55.887: >>OUT>> 8=FIX.4.4|9=55|35=0|34=29|49=TRADER|52=20260424-10:32:55.886|56=VENUE|10=095|
20260424-10:33:00.889: <<IN<< 8=FIX.4.4|9=55|35=0|34=32|49=VENUE|52=20260424-10:33:00.885|56=TRADER|10=079|
20260424-10:33:00.890: >>OUT>> 8=FIX.4.4|9=55|35=0|34=30|49=TRADER|52=20260424-10:33:00.890|56=VENUE|10=073|
20260424-10:33:02.073: >>OUT>> 8=FIX.4.4|9=55|35=5|34=31|49=TRADER|52=20260424-10:33:02.072|56=VENUE|10=073|
20260424-10:33:02.075: <<IN<< 8=FIX.4.4|9=55|35=5|34=33|49=VENUE|52=20260424-10:33:02.074|56=TRADER|10=077|
