20260428-06:02:36.013: >>OUT>> 8=FIX.4.4|9=66|35=A|34=1|49=TRADER|52=20260428-06:02:36.011|56=VENUE|98=0|108=30|10=066|
20260428-06:02:36.069: <<IN<< 8=FIX.4.4|9=66|35=A|34=1|49=VENUE|52=20260428-06:02:36.065|56=TRADER|98=0|108=30|10=075|
20260428-06:02:36.118: >>OUT>> 8=FIX.4.4|9=175|35=D|34=2|49=TRADER|52=20260428-06:02:36.118|56=VENUE|11=CL-EURUSD-a99ad5e6-3de4-482c-bd9d-af408dc4c919|21=1|38=100000|40=2|44=1.0745|54=1|55=EUR/USD|60=20260428-06:02:36.116|10=123|
20260428-06:02:36.186: <<IN<< 8=FIX.4.4|9=338|35=8|34=2|49=VENUE|52=20260428-06:02:36.184|56=TRADER|6=1.0745|11=CL-EURUSD-a99ad5e6-3de4-482c-bd9d-af408dc4c919|14=100000|17=EX-c955551c-9adb-4507-818b-11dd29a7bcb1|31=1.0745|32=100000|37=ORD-4f6963d3-505c-4347-9b80-7a81c8d2948a|39=2|41=CL-EURUSD-a99ad5e6-3de4-482c-bd9d-af408dc4c919|54=1|55=EUR/USD|60=20260428-06:02:36.184|150=2|151=0|10=239|
20260428-06:02:56.966: >>OUT>> 8=FIX.4.4|9=54|35=5|34=3|49=TRADER|52=20260428-06:02:56.966|56=VENUE|10=049|
20260428-06:02:56.969: <<IN<< 8=FIX.4.4|9=54|35=5|34=3|49=VENUE|52=20260428-06:02:56.968|56=TRADER|10=051|
