20260428-06:05:47.311: <<IN<< 8=FIX.4.4|9=65|35=A|34=1|49=TRADER|52=20260428-06:05:47.277|56=VENUE|98=0|108=5|10=038|
20260428-06:05:47.322: >>OUT>> 8=FIX.4.4|9=65|35=A|34=1|49=VENUE|52=20260428-06:05:47.321|56=TRADER|98=0|108=5|10=028|
20260428-06:05:47.365: <<IN<< 8=FIX.4.4|9=175|35=D|34=2|49=TRADER|52=20260428-06:05:47.363|56=VENUE|11=CL-EURUSD-2b6d15bc-2b92-4589-8ff9-94413a04fe79|21=1|38=100000|40=2|44=1.0745|54=1|55=EUR/USD|60=20260428-06:05:47.362|10=158|
20260428-06:05:47.430: >>OUT>> 8=FIX.4.4|9=338|35=8|34=2|49=VENUE|52=20260428-06:05:47.429|56=TRADER|6=1.0745|11=CL-EURUSD-2b6d15bc-2b92-4589-8ff9-94413a04fe79|14=100000|17=EX-5bcf6aad-3a67-4f15-88b8-efec7284b009|31=1.0745|32=100000|37=ORD-fe406aab-2fc4-4107-b338-131cecefd09e|39=2|41=CL-EURUSD-2b6d15bc-2b92-4589-8ff9-94413a04fe79|54=1|55=EUR/USD|60=20260428-06:05:47.429|150=2|151=0|10=193|
20260428-06:05:53.052: >>OUT>> 8=FIX.4.4|9=54|35=0|34=3|49=VENUE|52=20260428-06:05:53.048|56=TRADER|10=035|
20260428-06:05:53.245: <<IN<< 8=FIX.4.4|9=54|35=0|34=3|49=TRADER|52=20260428-06:05:53.244|56=VENUE|10=033|
20260428-06:05:58.048: >>OUT>> 8=FIX.4.4|9=54|35=0|34=4|49=VENUE|52=20260428-06:05:58.048|56=TRADER|10=041|
20260428-06:06:01.048: >>OUT>> 8=FIX.4.4|9=63|35=1|34=5|49=VENUE|52=20260428-06:06:01.048|56=TRADER|112=TEST|10=050|
20260428-06:06:04.245: <<IN<< 8=FIX.4.4|9=65|35=A|34=5|49=TRADER|52=20260428-06:06:04.244|56=VENUE|98=0|108=5|10=030|
20260428-06:06:04.246: >>OUT>> 8=FIX.4.4|9=65|35=A|34=6|49=VENUE|52=20260428-06:06:04.246|56=TRADER|98=0|108=5|10=033|
20260428-06:06:04.247: >>OUT>> 8=FIX.4.4|9=63|35=2|34=7|49=VENUE|52=20260428-06:06:04.247|56=TRADER|7=4|16=0|10=165|
20260428-06:06:04.249: <<IN<< 8=FIX.4.4|9=63|35=2|34=6|49=TRADER|52=20260428-06:06:04.248|56=VENUE|7=3|16=0|10=164|
20260428-06:06:04.250: <<IN<< 8=FIX.4.4|9=96|35=4|34=4|43=Y|49=TRADER|52=20260428-06:06:04.250|56=VENUE|122=20260428-06:06:04.250|36=7|123=Y|10=048|
20260428-06:06:04.250: >>OUT>> 8=FIX.4.4|9=96|35=4|34=3|43=Y|49=VENUE|52=20260428-06:06:04.250|56=TRADER|122=20260428-06:06:04.250|36=8|123=Y|10=048|
20260428-06:06:09.245: <<IN<< 8=FIX.4.4|9=54|35=0|34=7|49=TRADER|52=20260428-06:06:09.244|56=VENUE|10=039|
20260428-06:06:09.246: >>OUT>> 8=FIX.4.4|9=54|35=0|34=8|49=VENUE|52=20260428-06:06:09.245|56=TRADER|10=041|
20260428-06:06:14.245: <<IN<< 8=FIX.4.4|9=54|35=0|34=8|49=TRADER|52=20260428-06:06:14.244|56=VENUE|10=036|
20260428-06:06:14.246: >>OUT>> 8=FIX.4.4|9=54|35=0|34=9|49=VENUE|52=20260428-06:06:14.246|56=TRADER|10=039|
20260428-06:06:18.245: <<IN<< 8=FIX.4.4|9=54|35=5|34=9|49=TRADER|52=20260428-06:06:18.244|56=VENUE|10=046|
20260428-06:06:18.246: >>OUT>> 8=FIX.4.4|9=55|35=5|34=10|49=VENUE|52=20260428-06:06:18.246|56=TRADER|10=089|
