20260428-06:00:33.450: >>OUT>> 8=FIX.4.4|9=66|35=A|34=1|49=TRADER|52=20260428-06:00:33.449|56=VENUE|98=0|108=30|10=076|
20260428-06:00:33.505: <<IN<< 8=FIX.4.4|9=66|35=A|34=1|49=VENUE|52=20260428-06:00:33.500|56=TRADER|98=0|108=30|10=064|
20260428-06:00:33.542: >>OUT>> 8=FIX.4.4|9=175|35=D|34=2|49=TRADER|52=20260428-06:00:33.542|56=VENUE|11=CL-EURUSD-d4a5c0f4-fe33-4082-9457-2c4f9d46fb7e|21=1|38=100000|40=2|44=1.0745|54=1|55=EUR/USD|60=20260428-06:00:33.540|10=224|
20260428-06:00:33.588: <<IN<< 8=FIX.4.4|9=338|35=8|34=2|49=VENUE|52=20260428-06:00:33.586|56=TRADER|6=1.0745|11=CL-EURUSD-d4a5c0f4-fe33-4082-9457-2c4f9d46fb7e|14=100000|17=EX-481007d8-a30d-4f7a-8ac7-4981c5d790a9|31=1.0745|32=100000|37=ORD-338d9626-8733-4114-9e68-ae98f058a3f7|39=2|41=CL-EURUSD-d4a5c0f4-fe33-4082-9457-2c4f9d46fb7e|54=1|55=EUR/USD|60=20260428-06:00:33.586|150=2|151=0|10=084|
20260428-06:00:34.414: >>OUT>> 8=FIX.4.4|9=54|35=5|34=3|49=TRADER|52=20260428-06:00:34.414|56=VENUE|10=031|
20260428-06:00:34.416: <<IN<< 8=FIX.4.4|9=54|35=5|34=3|49=VENUE|52=20260428-06:00:34.416|56=TRADER|10=033|
