20260424-10:19:53.840: >>OUT>> 8=FIX.4.4|9=67|35=A|34=43|49=TRADER|52=20260424-10:19:53.838|56=VENUE|98=0|108=30|10=136|
20260424-10:19:53.875: <<IN<< 8=FIX.4.4|9=67|35=A|34=43|49=VENUE|52=20260424-10:19:53.870|56=TRADER|98=0|108=30|10=132|
20260424-10:19:53.911: >>OUT>> 8=FIX.4.4|9=176|35=D|34=44|49=TRADER|52=20260424-10:19:53.911|56=VENUE|11=CL-EURUSD-e3ca0775-ecbe-4f43-bd58-6ec0a64d4c82|21=1|38=100000|40=2|44=1.0745|54=1|55=EUR/USD|60=20260424-10:19:53.910|10=161|
20260424-10:19:53.977: <<IN<< 8=FIX.4.4|9=339|35=8|34=44|49=VENUE|52=20260424-10:19:53.976|56=TRADER|6=1.0745|11=CL-EURUSD-e3ca0775-ecbe-4f43-bd58-6ec0a64d4c82|14=100000|17=EX-a2a0c33c-92d4-464e-88ef-88932b9d2bee|31=1.0745|32=100000|37=ORD-2af608bf-7647-41dd-8d66-794e09cc40f0|39=2|41=CL-EURUSD-e3ca0775-ecbe-4f43-bd58-6ec0a64d4c82|54=1|55=EUR/USD|60=20260424-10:19:53.976|150=2|151=0|10=223|
20260424-10:19:54.794: >>OUT>> 8=FIX.4.4|9=55|35=5|34=45|49=TRADER|52=20260424-10:19:54.794|56=VENUE|10=100|
20260424-10:19:54.796: <<IN<< 8=FIX.4.4|9=55|35=5|34=45|49=VENUE|52=20260424-10:19:54.796|56=TRADER|10=102|
