20260428-06:00:46.962: >>OUT>> 8=FIX.4.4|9=66|35=A|34=1|49=TRADER|52=20260428-06:00:46.961|56=VENUE|98=0|108=30|10=079|
20260428-06:00:47.012: <<IN<< 8=FIX.4.4|9=66|35=A|34=1|49=VENUE|52=20260428-06:00:47.008|56=TRADER|98=0|108=30|10=072|
20260428-06:00:47.052: >>OUT>> 8=FIX.4.4|9=175|35=D|34=2|49=TRADER|52=20260428-06:00:47.051|56=VENUE|11=CL-EURUSD-e3cfacc4-77e4-462f-8b8e-cc5698353fc1|21=1|38=100000|40=2|44=1.0745|54=1|55=EUR/USD|60=20260428-06:00:47.050|10=071|
20260428-06:00:47.108: <<IN<< 8=FIX.4.4|9=338|35=8|34=2|49=VENUE|52=20260428-06:00:47.107|56=TRADER|6=1.0745|11=CL-EURUSD-e3cfacc4-77e4-462f-8b8e-cc5698353fc1|14=100000|17=EX-adfb7510-db49-47e1-8830-d16ac8520240|31=1.0745|32=100000|37=ORD-e3b8f5b4-cb07-469d-846d-169395d2440b|39=2|41=CL-EURUSD-e3cfacc4-77e4-462f-8b8e-cc5698353fc1|54=1|55=EUR/USD|60=20260428-06:00:47.107|150=2|151=0|10=126|
20260428-06:00:47.917: >>OUT>> 8=FIX.4.4|9=54|35=5|34=3|49=TRADER|52=20260428-06:00:47.916|56=VENUE|10=042|
20260428-06:00:47.919: <<IN<< 8=FIX.4.4|9=54|35=5|34=3|49=VENUE|52=20260428-06:00:47.918|56=TRADER|10=044|
20260428-06:00:49.623: >>OUT>> 8=FIX.4.4|9=66|35=A|34=9|49=TRADER|52=20260428-06:00:49.621|56=VENUE|98=0|108=30|10=083|
20260428-06:00:49.631: <<IN<< 8=FIX.4.4|9=66|35=A|34=4|49=VENUE|52=20260428-06:00:49.627|56=TRADER|98=0|108=30|10=084|
20260428-06:00:49.632: <<IN<< 8=FIX.4.4|9=63|35=2|34=5|49=VENUE|52=20260428-06:00:49.628|56=TRADER|7=4|16=0|10=169|
20260428-06:00:49.636: >>OUT>> 8=FIX.4.4|9=97|35=4|34=4|43=Y|49=TRADER|52=20260428-06:00:49.636|56=VENUE|122=20260428-06:00:49.636|36=10|123=Y|10=113|
20260428-06:00:49.668: >>OUT>> 8=FIX.4.4|9=176|35=D|34=10|49=TRADER|52=20260428-06:00:49.668|56=VENUE|11=CL-EURUSD-2298a95f-e3f4-49f1-a8e9-ef0393bf1622|21=1|38=100000|40=2|44=1.0745|54=1|55=EUR/USD|60=20260428-06:00:49.667|10=008|
20260428-06:00:49.671: <<IN<< 8=FIX.4.4|9=338|35=8|34=6|49=VENUE|52=20260428-06:00:49.670|56=TRADER|6=1.0745|11=CL-EURUSD-2298a95f-e3f4-49f1-a8e9-ef0393bf1622|14=100000|17=EX-ca86fc23-3a0c-4c9c-86c0-f38ac97227a8|31=1.0745|32=100000|37=ORD-b61c977d-a547-4f55-8fec-85a9b4835cd8|39=2|41=CL-EURUSD-2298a95f-e3f4-49f1-a8e9-ef0393bf1622|54=1|55=EUR/USD|60=20260428-06:00:49.670|150=2|151=0|10=130|
20260428-06:00:50.585: >>OUT>> 8=FIX.4.4|9=55|35=5|34=11|49=TRADER|52=20260428-06:00:50.585|56=VENUE|10=086|
20260428-06:00:50.588: <<IN<< 8=FIX.4.4|9=54|35=5|34=7|49=VENUE|52=20260428-06:00:50.587|56=TRADER|10=044|
