20260424-10:20:40.813: <<IN<< 8=FIX.4.4|9=67|35=A|34=14|49=TRADER|52=20260424-10:20:40.769|56=VENUE|98=0|108=30|10=125|
20260424-10:20:40.825: >>OUT>> 8=FIX.4.4|9=67|35=A|34=13|49=VENUE|52=20260424-10:20:40.824|56=TRADER|98=0|108=30|10=116|
20260424-10:20:40.877: <<IN<< 8=FIX.4.4|9=176|35=D|34=15|49=TRADER|52=20260424-10:20:40.876|56=VENUE|11=CL-EURUSD-dad52378-3d71-4531-ad5c-5ab4ff22c8d5|21=1|38=100000|40=2|44=1.0745|54=1|55=EUR/USD|60=20260424-10:20:40.875|10=054|
20260424-10:20:40.916: >>OUT>> 8=FIX.4.4|9=339|35=8|34=14|49=VENUE|52=20260424-10:20:40.915|56=TRADER|6=1.0745|11=CL-EURUSD-dad52378-3d71-4531-ad5c-5ab4ff22c8d5|14=100000|17=EX-b26b8ea7-d738-4a2a-9401-420e88d6b077|31=1.0745|32=100000|37=ORD-7e278d85-bc35-4961-91bc-1ed518893e89|39=2|41=CL-EURUSD-dad52378-3d71-4531-ad5c-5ab4ff22c8d5|54=1|55=EUR/USD|60=20260424-10:20:40.915|150=2|151=0|10=004|
20260424-10:21:01.727: <<IN<< 8=FIX.4.4|9=55|35=5|34=16|49=TRADER|52=20260424-10:21:01.726|56=VENUE|10=078|
20260424-10:21:01.728: >>OUT>> 8=FIX.4.4|9=55|35=5|34=15|49=VENUE|52=20260424-10:21:01.728|56=TRADER|10=079|
